{
  "contractName": "Ownable",
  "abi": [
    {
      "constant": true,
      "inputs": [],
      "name": "owner",
      "outputs": [
        {
          "name": "",
          "type": "address"
        }
      ],
      "payable": false,
      "stateMutability": "view",
      "type": "function"
    },
    {
      "constant": true,
      "inputs": [],
      "name": "master",
      "outputs": [
        {
          "name": "",
          "type": "address"
        }
      ],
      "payable": false,
      "stateMutability": "view",
      "type": "function"
    },
    {
      "inputs": [],
      "payable": false,
      "stateMutability": "nonpayable",
      "type": "constructor"
    },
    {
      "anonymous": false,
      "inputs": [
        {
          "indexed": true,
          "name": "previousOwner",
          "type": "address"
        }
      ],
      "name": "OwnershipRenounced",
      "type": "event"
    },
    {
      "anonymous": false,
      "inputs": [
        {
          "indexed": true,
          "name": "previousOwner",
          "type": "address"
        },
        {
          "indexed": true,
          "name": "newOwner",
          "type": "address"
        }
      ],
      "name": "OwnershipTransferred",
      "type": "event"
    },
    {
      "constant": false,
      "inputs": [],
      "name": "renounceOwnership",
      "outputs": [],
      "payable": false,
      "stateMutability": "nonpayable",
      "type": "function"
    },
    {
      "constant": false,
      "inputs": [
        {
          "name": "_newOwner",
          "type": "address"
        }
      ],
      "name": "transferOwnership",
      "outputs": [],
      "payable": false,
      "stateMutability": "nonpayable",
      "type": "function"
    }
  ],
  "bytecode": "0x608060405260018054600160a060020a031916730e0a1a8daa228def4a4a8613b3e40aaf435d319e17905534801561003657600080fd5b5060008054600160a060020a0319163317905561023a806100586000396000f3006080604052600436106100615763ffffffff7c0100000000000000000000000000000000000000000000000000000000600035041663715018a681146100665780638da5cb5b1461007d578063ee97f7f3146100ae578063f2fde38b146100c3575b600080fd5b34801561007257600080fd5b5061007b6100e4565b005b34801561008957600080fd5b50610092610150565b60408051600160a060020a039092168252519081900360200190f35b3480156100ba57600080fd5b5061009261015f565b3480156100cf57600080fd5b5061007b600160a060020a036004351661016e565b600054600160a060020a031633146100fb57600080fd5b60008054604051600160a060020a03909116917ff8df31144d9c2f0f6b59d69b8b98abd5459d07f2742c4df920b25aae33c6482091a26000805473ffffffffffffffffffffffffffffffffffffffff19169055565b600054600160a060020a031681565b600154600160a060020a031681565b600154600160a060020a0316331461018557600080fd5b61018e81610191565b50565b600160a060020a03811615156101a657600080fd5b60008054604051600160a060020a03808516939216917f8be0079c531659141344cd1fd0a4f28419497f9722a3daafe3b4186f6b6457e091a36000805473ffffffffffffffffffffffffffffffffffffffff1916600160a060020a03929092169190911790555600a165627a7a723058206d03b363664fc94c6b244a8ea7fcb59f84fb52f320b580878081b9f870f02a1a0029",
  "source": "pragma solidity ^0.4.24;\n\n\n/**\n * @title Ownable\n * @dev The Ownable contract has an owner address, and provides basic authorization control\n * functions, this simplifies the implementation of \"user permissions\".\n * A special address 'master' can transfer ownership.\n */\ncontract Ownable {\n    address public owner;\n    address public master = 0x0E0a1A8daa228dEF4a4A8613B3E40Aaf435D319e;\n\n    event OwnershipRenounced(address indexed previousOwner);\n    event OwnershipTransferred(\n        address indexed previousOwner,\n        address indexed newOwner\n    );\n\n\n  /**\n   * @dev The Ownable constructor sets the original 'owner' of the contract to the sender\n   * account.\n   */\n    constructor() public {\n        owner = msg.sender;\n    }\n\n  /**\n   * @dev Throws if called by any account other than the owner.\n   */\n    modifier onlyOwner() {\n        require(msg.sender == owner);\n        _;\n    }\n\n  /**\n   * @dev Allows the current owner to relinquish control of the contract.\n   */\n    function renounceOwnership() public onlyOwner {\n        emit OwnershipRenounced(owner);\n        owner = address(0);\n    }\n\n  /**\n   * @dev Allows the master to transfer control of the contract to a newOwner.\n   * @param _newOwner The address to transfer ownership to.\n   */\n    function transferOwnership(address _newOwner) public {\n         require(msg.sender == master);\n        _transferOwnership(_newOwner);\n    }\n\n  /**\n   * @dev Transfers control of the contract to a newOwner.\n   * @param _newOwner The address to transfer ownership to.\n   */\n    function _transferOwnership(address _newOwner) internal {\n        require(_newOwner != address(0));\n        emit OwnershipTransferred(owner, _newOwner);\n        owner = _newOwner;\n    }\n}\n",
  "sourcePath": "/home/benjamin/Documents/GitHub/Ethereum/Alethena-Shares-Token/AlethenaShares/contracts/Ownable.sol",
  "compiler": {
    "name": "solc",
    "version": "0.4.24+commit.e67f0147.Emscripten.clang"
  },
  "schemaVersion": "2.0.1",
  "updatedAt": "2018-11-14T10:50:25.164Z"
}