{
  "contractName": "AlethenaShares",
  "abi": [
    {
      "constant": false,
      "inputs": [
        {
          "name": "_lostAddress",
          "type": "address"
        }
      ],
      "name": "deleteClaim",
      "outputs": [],
      "payable": false,
      "stateMutability": "nonpayable",
      "type": "function"
    },
    {
      "constant": false,
      "inputs": [
        {
          "name": "_collateralRate",
          "type": "uint128"
        },
        {
          "name": "_claimPeriodInBlocks",
          "type": "uint32"
        }
      ],
      "name": "setClaimParameters",
      "outputs": [],
      "payable": false,
      "stateMutability": "nonpayable",
      "type": "function"
    },
    {
      "constant": false,
      "inputs": [
        {
          "name": "_lostAddress",
          "type": "address"
        }
      ],
      "name": "declareLost",
      "outputs": [],
      "payable": true,
      "stateMutability": "payable",
      "type": "function"
    },
    {
      "constant": false,
      "inputs": [],
      "name": "clearClaim",
      "outputs": [
        {
          "name": "",
          "type": "uint256"
        }
      ],
      "payable": false,
      "stateMutability": "nonpayable",
      "type": "function"
    },
    {
      "constant": false,
      "inputs": [],
      "name": "renounceOwnership",
      "outputs": [],
      "payable": false,
      "stateMutability": "nonpayable",
      "type": "function"
    },
    {
      "constant": true,
      "inputs": [],
      "name": "owner",
      "outputs": [
        {
          "name": "",
          "type": "address"
        }
      ],
      "payable": false,
      "stateMutability": "view",
      "type": "function"
    },
    {
      "constant": false,
      "inputs": [
        {
          "name": "_lostAddress",
          "type": "address"
        }
      ],
      "name": "resolveClaim",
      "outputs": [
        {
          "name": "",
          "type": "uint256"
        }
      ],
      "payable": false,
      "stateMutability": "nonpayable",
      "type": "function"
    },
    {
      "constant": true,
      "inputs": [],
      "name": "isPaused",
      "outputs": [
        {
          "name": "",
          "type": "bool"
        }
      ],
      "payable": false,
      "stateMutability": "view",
      "type": "function"
    },
    {
      "constant": true,
      "inputs": [
        {
          "name": "",
          "type": "address"
        }
      ],
      "name": "claims",
      "outputs": [
        {
          "name": "claimant",
          "type": "address"
        },
        {
          "name": "collateral",
          "type": "uint256"
        },
        {
          "name": "timestamp",
          "type": "uint256"
        }
      ],
      "payable": false,
      "stateMutability": "view",
      "type": "function"
    },
    {
      "constant": false,
      "inputs": [
        {
          "name": "_newOwner",
          "type": "address"
        }
      ],
      "name": "transferOwnership",
      "outputs": [],
      "payable": false,
      "stateMutability": "nonpayable",
      "type": "function"
    },
    {
      "constant": true,
      "inputs": [],
      "name": "termsAndConditions",
      "outputs": [
        {
          "name": "",
          "type": "string"
        }
      ],
      "payable": false,
      "stateMutability": "view",
      "type": "function"
    },
    {
      "anonymous": false,
      "inputs": [
        {
          "indexed": false,
          "name": "shareholder",
          "type": "address"
        },
        {
          "indexed": false,
          "name": "amount",
          "type": "uint256"
        },
        {
          "indexed": false,
          "name": "message",
          "type": "string"
        }
      ],
      "name": "Mint",
      "type": "event"
    },
    {
      "anonymous": false,
      "inputs": [
        {
          "indexed": false,
          "name": "amount",
          "type": "uint256"
        },
        {
          "indexed": false,
          "name": "message",
          "type": "string"
        }
      ],
      "name": "Unmint",
      "type": "event"
    },
    {
      "anonymous": false,
      "inputs": [
        {
          "indexed": false,
          "name": "paused",
          "type": "bool"
        },
        {
          "indexed": false,
          "name": "message",
          "type": "string"
        }
      ],
      "name": "Pause",
      "type": "event"
    },
    {
      "anonymous": false,
      "inputs": [
        {
          "indexed": true,
          "name": "_lostAddress",
          "type": "address"
        },
        {
          "indexed": true,
          "name": "_claimant",
          "type": "address"
        },
        {
          "indexed": false,
          "name": "_balance",
          "type": "uint256"
        }
      ],
      "name": "ClaimMade",
      "type": "event"
    },
    {
      "anonymous": false,
      "inputs": [
        {
          "indexed": true,
          "name": "_lostAddress",
          "type": "address"
        },
        {
          "indexed": false,
          "name": "collateral",
          "type": "uint256"
        }
      ],
      "name": "ClaimCleared",
      "type": "event"
    },
    {
      "anonymous": false,
      "inputs": [
        {
          "indexed": true,
          "name": "_lostAddress",
          "type": "address"
        },
        {
          "indexed": true,
          "name": "_claimant",
          "type": "address"
        },
        {
          "indexed": false,
          "name": "collateral",
          "type": "uint256"
        }
      ],
      "name": "ClaimDeleted",
      "type": "event"
    },
    {
      "anonymous": false,
      "inputs": [
        {
          "indexed": true,
          "name": "_lostAddress",
          "type": "address"
        },
        {
          "indexed": true,
          "name": "_claimant",
          "type": "address"
        },
        {
          "indexed": false,
          "name": "collateral",
          "type": "uint256"
        }
      ],
      "name": "ClaimResolved",
      "type": "event"
    },
    {
      "anonymous": false,
      "inputs": [
        {
          "indexed": true,
          "name": "previousOwner",
          "type": "address"
        }
      ],
      "name": "OwnershipRenounced",
      "type": "event"
    },
    {
      "anonymous": false,
      "inputs": [
        {
          "indexed": true,
          "name": "previousOwner",
          "type": "address"
        },
        {
          "indexed": true,
          "name": "newOwner",
          "type": "address"
        }
      ],
      "name": "OwnershipTransferred",
      "type": "event"
    },
    {
      "anonymous": false,
      "inputs": [
        {
          "indexed": true,
          "name": "owner",
          "type": "address"
        },
        {
          "indexed": true,
          "name": "spender",
          "type": "address"
        },
        {
          "indexed": false,
          "name": "value",
          "type": "uint256"
        }
      ],
      "name": "Approval",
      "type": "event"
    },
    {
      "anonymous": false,
      "inputs": [
        {
          "indexed": true,
          "name": "from",
          "type": "address"
        },
        {
          "indexed": true,
          "name": "to",
          "type": "address"
        },
        {
          "indexed": false,
          "name": "value",
          "type": "uint256"
        }
      ],
      "name": "Transfer",
      "type": "event"
    },
    {
      "constant": true,
      "inputs": [],
      "name": "totalSupply",
      "outputs": [
        {
          "name": "",
          "type": "uint256"
        }
      ],
      "payable": false,
      "stateMutability": "view",
      "type": "function"
    },
    {
      "constant": true,
      "inputs": [],
      "name": "totalShares",
      "outputs": [
        {
          "name": "",
          "type": "uint256"
        }
      ],
      "payable": false,
      "stateMutability": "view",
      "type": "function"
    },
    {
      "constant": false,
      "inputs": [
        {
          "name": "_newTotalShares",
          "type": "uint256"
        }
      ],
      "name": "setTotalShares",
      "outputs": [],
      "payable": false,
      "stateMutability": "nonpayable",
      "type": "function"
    },
    {
      "constant": false,
      "inputs": [
        {
          "name": "shareholder",
          "type": "address"
        },
        {
          "name": "_amount",
          "type": "uint256"
        },
        {
          "name": "_message",
          "type": "string"
        }
      ],
      "name": "mint",
      "outputs": [],
      "payable": false,
      "stateMutability": "nonpayable",
      "type": "function"
    },
    {
      "constant": false,
      "inputs": [
        {
          "name": "_amount",
          "type": "uint256"
        },
        {
          "name": "_message",
          "type": "string"
        }
      ],
      "name": "unmint",
      "outputs": [],
      "payable": false,
      "stateMutability": "nonpayable",
      "type": "function"
    },
    {
      "constant": false,
      "inputs": [
        {
          "name": "_pause",
          "type": "bool"
        },
        {
          "name": "_message",
          "type": "string"
        }
      ],
      "name": "pause",
      "outputs": [],
      "payable": false,
      "stateMutability": "nonpayable",
      "type": "function"
    },
    {
      "constant": false,
      "inputs": [
        {
          "name": "_to",
          "type": "address"
        },
        {
          "name": "_value",
          "type": "uint256"
        }
      ],
      "name": "transfer",
      "outputs": [
        {
          "name": "",
          "type": "bool"
        }
      ],
      "payable": false,
      "stateMutability": "nonpayable",
      "type": "function"
    },
    {
      "constant": true,
      "inputs": [
        {
          "name": "_owner",
          "type": "address"
        }
      ],
      "name": "balanceOf",
      "outputs": [
        {
          "name": "",
          "type": "uint256"
        }
      ],
      "payable": false,
      "stateMutability": "view",
      "type": "function"
    },
    {
      "constant": false,
      "inputs": [
        {
          "name": "_from",
          "type": "address"
        },
        {
          "name": "_to",
          "type": "address"
        },
        {
          "name": "_value",
          "type": "uint256"
        }
      ],
      "name": "transferFrom",
      "outputs": [
        {
          "name": "",
          "type": "bool"
        }
      ],
      "payable": false,
      "stateMutability": "nonpayable",
      "type": "function"
    },
    {
      "constant": false,
      "inputs": [
        {
          "name": "_spender",
          "type": "address"
        },
        {
          "name": "_value",
          "type": "uint256"
        }
      ],
      "name": "approve",
      "outputs": [
        {
          "name": "",
          "type": "bool"
        }
      ],
      "payable": false,
      "stateMutability": "nonpayable",
      "type": "function"
    },
    {
      "constant": true,
      "inputs": [
        {
          "name": "_owner",
          "type": "address"
        },
        {
          "name": "_spender",
          "type": "address"
        }
      ],
      "name": "allowance",
      "outputs": [
        {
          "name": "",
          "type": "uint256"
        }
      ],
      "payable": false,
      "stateMutability": "view",
      "type": "function"
    },
    {
      "constant": false,
      "inputs": [
        {
          "name": "_spender",
          "type": "address"
        },
        {
          "name": "_addedValue",
          "type": "uint256"
        }
      ],
      "name": "increaseApproval",
      "outputs": [
        {
          "name": "",
          "type": "bool"
        }
      ],
      "payable": false,
      "stateMutability": "nonpayable",
      "type": "function"
    },
    {
      "constant": false,
      "inputs": [
        {
          "name": "_spender",
          "type": "address"
        },
        {
          "name": "_subtractedValue",
          "type": "uint256"
        }
      ],
      "name": "decreaseApproval",
      "outputs": [
        {
          "name": "",
          "type": "bool"
        }
      ],
      "payable": false,
      "stateMutability": "nonpayable",
      "type": "function"
    }
  ],
  "bytecode": "0x6080604052670de0b6b3a7640000600160006101000a8154816fffffffffffffffffffffffffffffffff02191690836fffffffffffffffffffffffffffffffff16021790555060018060106101000a81548163ffffffff021916908363ffffffff1602179055506103e86005556000600660006101000a81548160ff021916908315150217905550336000806101000a81548173ffffffffffffffffffffffffffffffffffffffff021916908373ffffffffffffffffffffffffffffffffffffffff1602179055506127e6806100d66000396000f30060806040526004361061013e576000357c0100000000000000000000000000000000000000000000000000000000900463ffffffff168063095ea7b31461014357806318160ddd146101a857806323b872dd146101d357806332a7ae9514610258578063362d72431461029b5780633a98ef39146102ea5780634b6b8a6414610315578063661884631461034b5780636b03ed5f146103b057806370a08231146103db578063715018a6146104325780638da5cb5b1461044957806394d645a8146104a0578063a56d96bb146104f7578063a77384c11461056a578063a9059cbb14610597578063b187bd26146105fc578063c277fe561461062b578063c6788bdd146106a0578063d3fc986414610731578063d73dd623146107c4578063dd62ed3e14610829578063f2fde38b146108a0578063f678462f146108e3575b600080fd5b34801561014f57600080fd5b5061018e600480360381019080803573ffffffffffffffffffffffffffffffffffffffff16906020019092919080359060200190929190505050610973565b604051808215151515815260200191505060405180910390f35b3480156101b457600080fd5b506101bd610a81565b6040518082815260200191505060405180910390f35b3480156101df57600080fd5b5061023e600480360381019080803573ffffffffffffffffffffffffffffffffffffffff169060200190929190803573ffffffffffffffffffffffffffffffffffffffff16906020019092919080359060200190929190505050610a8b565b604051808215151515815260200191505060405180910390f35b34801561026457600080fd5b50610299600480360381019080803573ffffffffffffffffffffffffffffffffffffffff169060200190929190505050610c3d565b005b3480156102a757600080fd5b506102e860048036038101908080356fffffffffffffffffffffffffffffffff169060200190929190803563ffffffff169060200190929190505050610f2a565b005b3480156102f657600080fd5b506102ff61101b565b6040518082815260200191505060405180910390f35b610349600480360381019080803573ffffffffffffffffffffffffffffffffffffffff169060200190929190505050611025565b005b34801561035757600080fd5b50610396600480360381019080803573ffffffffffffffffffffffffffffffffffffffff1690602001909291908035906020019092919050505061120b565b604051808215151515815260200191505060405180910390f35b3480156103bc57600080fd5b506103c56114b8565b6040518082815260200191505060405180910390f35b3480156103e757600080fd5b5061041c600480360381019080803573ffffffffffffffffffffffffffffffffffffffff169060200190929190505050611629565b6040518082815260200191505060405180910390f35b34801561043e57600080fd5b50610447611672565b005b34801561045557600080fd5b5061045e611774565b604051808273ffffffffffffffffffffffffffffffffffffffff1673ffffffffffffffffffffffffffffffffffffffff16815260200191505060405180910390f35b3480156104ac57600080fd5b506104e1600480360381019080803573ffffffffffffffffffffffffffffffffffffffff169060200190929190505050611799565b6040518082815260200191505060405180910390f35b34801561050357600080fd5b5061056860048036038101908080359060200190929190803590602001908201803590602001908080601f0160208091040260200160405190810160405280939291908181526020018383808284378201915050505050509192919290505050611a99565b005b34801561057657600080fd5b5061059560048036038101908080359060200190929190505050611cc5565b005b3480156105a357600080fd5b506105e2600480360381019080803573ffffffffffffffffffffffffffffffffffffffff16906020019092919080359060200190929190505050611d40565b604051808215151515815260200191505060405180910390f35b34801561060857600080fd5b50610611611d60565b604051808215151515815260200191505060405180910390f35b34801561063757600080fd5b5061069e600480360381019080803515159060200190929190803590602001908201803590602001908080601f0160208091040260200160405190810160405280939291908181526020018383808284378201915050505050509192919290505050611d73565b005b3480156106ac57600080fd5b506106e1600480360381019080803573ffffffffffffffffffffffffffffffffffffffff169060200190929190505050611e94565b604051808473ffffffffffffffffffffffffffffffffffffffff1673ffffffffffffffffffffffffffffffffffffffff168152602001838152602001828152602001935050505060405180910390f35b34801561073d57600080fd5b506107c2600480360381019080803573ffffffffffffffffffffffffffffffffffffffff16906020019092919080359060200190929190803590602001908201803590602001908080601f0160208091040260200160405190810160405280939291908181526020018383808284378201915050505050509192919290505050611ede565b005b3480156107d057600080fd5b5061080f600480360381019080803573ffffffffffffffffffffffffffffffffffffffff169060200190929190803590602001909291905050506120da565b604051808215151515815260200191505060405180910390f35b34801561083557600080fd5b5061088a600480360381019080803573ffffffffffffffffffffffffffffffffffffffff169060200190929190803573ffffffffffffffffffffffffffffffffffffffff1690602001909291905050506122f2565b6040518082815260200191505060405180910390f35b3480156108ac57600080fd5b506108e1600480360381019080803573ffffffffffffffffffffffffffffffffffffffff169060200190929190505050612379565b005b3480156108ef57600080fd5b506108f86123e0565b6040518080602001828103825283818151815260200191508051906020019080838360005b8381101561093857808201518184015260208101905061091d565b50505050905090810190601f1680156109655780820380516001836020036101000a031916815260200191505b509250505060405180910390f35b6000600660009054906101000a900460ff1615151561099157600080fd5b81600760003373ffffffffffffffffffffffffffffffffffffffff1673ffffffffffffffffffffffffffffffffffffffff16815260200190815260200160002060008573ffffffffffffffffffffffffffffffffffffffff1673ffffffffffffffffffffffffffffffffffffffff168152602001908152602001600020819055508273ffffffffffffffffffffffffffffffffffffffff163373ffffffffffffffffffffffffffffffffffffffff167f8c5be1e5ebec7d5bd14f71427d1e84f3dd0314c0f7b2291e5b200ac8c7c3b925846040518082815260200191505060405180910390a36001905092915050565b6000600454905090565b6000600760008573ffffffffffffffffffffffffffffffffffffffff1673ffffffffffffffffffffffffffffffffffffffff16815260200190815260200160002060003373ffffffffffffffffffffffffffffffffffffffff1673ffffffffffffffffffffffffffffffffffffffff168152602001908152602001600020548211151515610b1857600080fd5b610b23848484612419565b610bb282600760008773ffffffffffffffffffffffffffffffffffffffff1673ffffffffffffffffffffffffffffffffffffffff16815260200190815260200160002060003373ffffffffffffffffffffffffffffffffffffffff1673ffffffffffffffffffffffffffffffffffffffff1681526020019081526020016000205461265390919063ffffffff16565b600760008673ffffffffffffffffffffffffffffffffffffffff1673ffffffffffffffffffffffffffffffffffffffff16815260200190815260200160002060003373ffffffffffffffffffffffffffffffffffffffff1673ffffffffffffffffffffffffffffffffffffffff16815260200190815260200160002081905550600190509392505050565b610c45612782565b6000809054906101000a900473ffffffffffffffffffffffffffffffffffffffff1673ffffffffffffffffffffffffffffffffffffffff163373ffffffffffffffffffffffffffffffffffffffff16141515610ca057600080fd5b600260008373ffffffffffffffffffffffffffffffffffffffff1673ffffffffffffffffffffffffffffffffffffffff168152602001908152602001600020606060405190810160405290816000820160009054906101000a900473ffffffffffffffffffffffffffffffffffffffff1673ffffffffffffffffffffffffffffffffffffffff1673ffffffffffffffffffffffffffffffffffffffff1681526020016001820154815260200160028201548152505090506000816020015114151515610dd4576040517f08c379a000000000000000000000000000000000000000000000000000000000815260040180806020018281038252600e8152602001807f4e6f20636c61696d20666f756e6400000000000000000000000000000000000081525060200191505060405180910390fd5b600260008373ffffffffffffffffffffffffffffffffffffffff1673ffffffffffffffffffffffffffffffffffffffff168152602001908152602001600020600080820160006101000a81549073ffffffffffffffffffffffffffffffffffffffff02191690556001820160009055600282016000905550506000809054906101000a900473ffffffffffffffffffffffffffffffffffffffff1673ffffffffffffffffffffffffffffffffffffffff166108fc82602001519081150290604051600060405180830381858888f19350505050158015610eb8573d6000803e3d6000fd5b50806000015173ffffffffffffffffffffffffffffffffffffffff168273ffffffffffffffffffffffffffffffffffffffff167fbb036e629a9f4c0897ee5d48440dfdb36f7e772117723a2ed603a6514244c2d583602001516040518082815260200191505060405180910390a35050565b6000809054906101000a900473ffffffffffffffffffffffffffffffffffffffff1673ffffffffffffffffffffffffffffffffffffffff163373ffffffffffffffffffffffffffffffffffffffff16141515610f8557600080fd5b6000826fffffffffffffffffffffffffffffffff16111515610fa657600080fd5b6202bf208163ffffffff16111515610fbd57600080fd5b81600160006101000a8154816fffffffffffffffffffffffffffffffff02191690836fffffffffffffffffffffffffffffffff16021790555080600160106101000a81548163ffffffff021916908363ffffffff1602179055505050565b6000600554905090565b600061103082611629565b905060008111151561104157600080fd5b600160009054906101000a90046fffffffffffffffffffffffffffffffff166fffffffffffffffffffffffffffffffff168102341015151561108257600080fd5b6000600260008473ffffffffffffffffffffffffffffffffffffffff1673ffffffffffffffffffffffffffffffffffffffff168152602001908152602001600020600101541415156110d357600080fd5b6060604051908101604052803373ffffffffffffffffffffffffffffffffffffffff16815260200134815260200143815250600260008473ffffffffffffffffffffffffffffffffffffffff1673ffffffffffffffffffffffffffffffffffffffff16815260200190815260200160002060008201518160000160006101000a81548173ffffffffffffffffffffffffffffffffffffffff021916908373ffffffffffffffffffffffffffffffffffffffff16021790555060208201518160010155604082015181600201559050503373ffffffffffffffffffffffffffffffffffffffff168273ffffffffffffffffffffffffffffffffffffffff167f1982ca8958fc8a8176cb52be509260f4bc5af7ce04e1533711793f1c56dd5359836040518082815260200191505060405180910390a35050565b600080600660009054906101000a900460ff1615151561122a57600080fd5b600760003373ffffffffffffffffffffffffffffffffffffffff1673ffffffffffffffffffffffffffffffffffffffff16815260200190815260200160002060008573ffffffffffffffffffffffffffffffffffffffff1673ffffffffffffffffffffffffffffffffffffffff16815260200190815260200160002054905080831115611338576000600760003373ffffffffffffffffffffffffffffffffffffffff1673ffffffffffffffffffffffffffffffffffffffff16815260200190815260200160002060008673ffffffffffffffffffffffffffffffffffffffff1673ffffffffffffffffffffffffffffffffffffffff168152602001908152602001600020819055506113cc565b61134b838261265390919063ffffffff16565b600760003373ffffffffffffffffffffffffffffffffffffffff1673ffffffffffffffffffffffffffffffffffffffff16815260200190815260200160002060008673ffffffffffffffffffffffffffffffffffffffff1673ffffffffffffffffffffffffffffffffffffffff168152602001908152602001600020819055505b8373ffffffffffffffffffffffffffffffffffffffff163373ffffffffffffffffffffffffffffffffffffffff167f8c5be1e5ebec7d5bd14f71427d1e84f3dd0314c0f7b2291e5b200ac8c7c3b925600760003373ffffffffffffffffffffffffffffffffffffffff1673ffffffffffffffffffffffffffffffffffffffff16815260200190815260200160002060008873ffffffffffffffffffffffffffffffffffffffff1673ffffffffffffffffffffffffffffffffffffffff168152602001908152602001600020546040518082815260200191505060405180910390a3600191505092915050565b600080600260003373ffffffffffffffffffffffffffffffffffffffff1673ffffffffffffffffffffffffffffffffffffffff16815260200190815260200160002060010154905060008114151561162057600260003373ffffffffffffffffffffffffffffffffffffffff1673ffffffffffffffffffffffffffffffffffffffff168152602001908152602001600020600080820160006101000a81549073ffffffffffffffffffffffffffffffffffffffff02191690556001820160009055600282016000905550503373ffffffffffffffffffffffffffffffffffffffff166108fc829081150290604051600060405180830381858888f193505050501580156115c9573d6000803e3d6000fd5b503373ffffffffffffffffffffffffffffffffffffffff167f203627483d943880619f4b7e0cca21dbefd6204b4d85b124eb99540e17ba86dd826040518082815260200191505060405180910390a2809150611625565b600091505b5090565b6000600360008373ffffffffffffffffffffffffffffffffffffffff1673ffffffffffffffffffffffffffffffffffffffff168152602001908152602001600020549050919050565b6000809054906101000a900473ffffffffffffffffffffffffffffffffffffffff1673ffffffffffffffffffffffffffffffffffffffff163373ffffffffffffffffffffffffffffffffffffffff161415156116cd57600080fd5b6000809054906101000a900473ffffffffffffffffffffffffffffffffffffffff1673ffffffffffffffffffffffffffffffffffffffff167ff8df31144d9c2f0f6b59d69b8b98abd5459d07f2742c4df920b25aae33c6482060405160405180910390a260008060006101000a81548173ffffffffffffffffffffffffffffffffffffffff021916908373ffffffffffffffffffffffffffffffffffffffff160217905550565b6000809054906101000a900473ffffffffffffffffffffffffffffffffffffffff1681565b60006117a3612782565b6000600260008573ffffffffffffffffffffffffffffffffffffffff1673ffffffffffffffffffffffffffffffffffffffff168152602001908152602001600020606060405190810160405290816000820160009054906101000a900473ffffffffffffffffffffffffffffffffffffffff1673ffffffffffffffffffffffffffffffffffffffff1673ffffffffffffffffffffffffffffffffffffffff16815260200160018201548152602001600282015481525050915060008260200151141515156118d9576040517f08c379a000000000000000000000000000000000000000000000000000000000815260040180806020018281038252600e8152602001807f4e6f20636c61696d20666f756e6400000000000000000000000000000000000081525060200191505060405180910390fd5b3373ffffffffffffffffffffffffffffffffffffffff16826000015173ffffffffffffffffffffffffffffffffffffffff1614151561191757600080fd5b43600160109054906101000a900463ffffffff1663ffffffff168360400151011015151561194457600080fd5b81600001519050600260008573ffffffffffffffffffffffffffffffffffffffff1673ffffffffffffffffffffffffffffffffffffffff168152602001908152602001600020600080820160006101000a81549073ffffffffffffffffffffffffffffffffffffffff02191690556001820160009055600282016000905550508073ffffffffffffffffffffffffffffffffffffffff166108fc83602001519081150290604051600060405180830381858888f19350505050158015611a0e573d6000803e3d6000fd5b50611a228482611a1d87611629565b612419565b8073ffffffffffffffffffffffffffffffffffffffff168473ffffffffffffffffffffffffffffffffffffffff167f52a5c2b28bc6eb9712d0ced43463103b486b13ccc9cda499fd3b2d7b6a74a8ee84602001516040518082815260200191505060405180910390a3816020015192505050919050565b6000809054906101000a900473ffffffffffffffffffffffffffffffffffffffff1673ffffffffffffffffffffffffffffffffffffffff163373ffffffffffffffffffffffffffffffffffffffff16141515611af457600080fd5b600082111515611b0357600080fd5b611b2d6000809054906101000a900473ffffffffffffffffffffffffffffffffffffffff16611629565b8210151515611b3b57600080fd5b611bae82600360008060009054906101000a900473ffffffffffffffffffffffffffffffffffffffff1673ffffffffffffffffffffffffffffffffffffffff1673ffffffffffffffffffffffffffffffffffffffff1681526020019081526020016000205461265390919063ffffffff16565b600360008060009054906101000a900473ffffffffffffffffffffffffffffffffffffffff1673ffffffffffffffffffffffffffffffffffffffff1673ffffffffffffffffffffffffffffffffffffffff1681526020019081526020016000208190555081600454036004819055507f6fa26c05a43c14146728c90c874027d865c1b4454522dfbadb3b5b3d3329714d82826040518083815260200180602001828103825283818151815260200191508051906020019080838360005b83811015611c86578082015181840152602081019050611c6b565b50505050905090810190601f168015611cb35780820380516001836020036101000a031916815260200191505b50935050505060405180910390a15050565b6000809054906101000a900473ffffffffffffffffffffffffffffffffffffffff1673ffffffffffffffffffffffffffffffffffffffff163373ffffffffffffffffffffffffffffffffffffffff16141515611d2057600080fd5b611d28610a81565b8110151515611d3657600080fd5b8060058190555050565b6000611d4a6114b8565b50611d56338484612419565b6001905092915050565b600660009054906101000a900460ff1681565b6000809054906101000a900473ffffffffffffffffffffffffffffffffffffffff1673ffffffffffffffffffffffffffffffffffffffff163373ffffffffffffffffffffffffffffffffffffffff16141515611dce57600080fd5b81600660006101000a81548160ff0219169083151502179055507f6b92c8f36c9187e47c181ab6b6a01964aca80b33b67a5e9fcb187e61cab4844a8282604051808315151515815260200180602001828103825283818151815260200191508051906020019080838360005b83811015611e55578082015181840152602081019050611e3a565b50505050905090810190601f168015611e825780820380516001836020036101000a031916815260200191505b50935050505060405180910390a15050565b60026020528060005260406000206000915090508060000160009054906101000a900473ffffffffffffffffffffffffffffffffffffffff16908060010154908060020154905083565b6000809054906101000a900473ffffffffffffffffffffffffffffffffffffffff1673ffffffffffffffffffffffffffffffffffffffff163373ffffffffffffffffffffffffffffffffffffffff16141515611f3957600080fd5b600082111515611f4857600080fd5b600554826004540111151515611f5d57600080fd5b611faf82600360008673ffffffffffffffffffffffffffffffffffffffff1673ffffffffffffffffffffffffffffffffffffffff1681526020019081526020016000205461266c90919063ffffffff16565b600360008573ffffffffffffffffffffffffffffffffffffffff1673ffffffffffffffffffffffffffffffffffffffff1681526020019081526020016000208190555081600454016004819055507f85a66b9141978db9980f7e0ce3b468cebf4f7999f32b23091c5c03e798b1ba7a838383604051808473ffffffffffffffffffffffffffffffffffffffff1673ffffffffffffffffffffffffffffffffffffffff16815260200183815260200180602001828103825283818151815260200191508051906020019080838360005b8381101561209957808201518184015260208101905061207e565b50505050905090810190601f1680156120c65780820380516001836020036101000a031916815260200191505b5094505050505060405180910390a1505050565b6000600660009054906101000a900460ff161515156120f857600080fd5b61218782600760003373ffffffffffffffffffffffffffffffffffffffff1673ffffffffffffffffffffffffffffffffffffffff16815260200190815260200160002060008673ffffffffffffffffffffffffffffffffffffffff1673ffffffffffffffffffffffffffffffffffffffff1681526020019081526020016000205461266c90919063ffffffff16565b600760003373ffffffffffffffffffffffffffffffffffffffff1673ffffffffffffffffffffffffffffffffffffffff16815260200190815260200160002060008573ffffffffffffffffffffffffffffffffffffffff1673ffffffffffffffffffffffffffffffffffffffff168152602001908152602001600020819055508273ffffffffffffffffffffffffffffffffffffffff163373ffffffffffffffffffffffffffffffffffffffff167f8c5be1e5ebec7d5bd14f71427d1e84f3dd0314c0f7b2291e5b200ac8c7c3b925600760003373ffffffffffffffffffffffffffffffffffffffff1673ffffffffffffffffffffffffffffffffffffffff16815260200190815260200160002060008773ffffffffffffffffffffffffffffffffffffffff1673ffffffffffffffffffffffffffffffffffffffff168152602001908152602001600020546040518082815260200191505060405180910390a36001905092915050565b6000600760008473ffffffffffffffffffffffffffffffffffffffff1673ffffffffffffffffffffffffffffffffffffffff16815260200190815260200160002060008373ffffffffffffffffffffffffffffffffffffffff1673ffffffffffffffffffffffffffffffffffffffff16815260200190815260200160002054905092915050565b6000809054906101000a900473ffffffffffffffffffffffffffffffffffffffff1673ffffffffffffffffffffffffffffffffffffffff163373ffffffffffffffffffffffffffffffffffffffff161415156123d457600080fd5b6123dd81612688565b50565b6040805190810160405280601381526020017f7368617265732e616c657468656e612e636f6d0000000000000000000000000081525081565b600660009054906101000a900460ff1615151561243557600080fd5b600073ffffffffffffffffffffffffffffffffffffffff168273ffffffffffffffffffffffffffffffffffffffff161415151561247157600080fd5b600360008473ffffffffffffffffffffffffffffffffffffffff1673ffffffffffffffffffffffffffffffffffffffff1681526020019081526020016000205481111515156124bf57600080fd5b61251181600360008673ffffffffffffffffffffffffffffffffffffffff1673ffffffffffffffffffffffffffffffffffffffff1681526020019081526020016000205461265390919063ffffffff16565b600360008573ffffffffffffffffffffffffffffffffffffffff1673ffffffffffffffffffffffffffffffffffffffff168152602001908152602001600020819055506125a681600360008573ffffffffffffffffffffffffffffffffffffffff1673ffffffffffffffffffffffffffffffffffffffff1681526020019081526020016000205461266c90919063ffffffff16565b600360008473ffffffffffffffffffffffffffffffffffffffff1673ffffffffffffffffffffffffffffffffffffffff168152602001908152602001600020819055508173ffffffffffffffffffffffffffffffffffffffff168373ffffffffffffffffffffffffffffffffffffffff167fddf252ad1be2c89b69c2b068fc378daa952ba7f163c4a11628f55a4df523b3ef836040518082815260200191505060405180910390a3505050565b600082821115151561266157fe5b818303905092915050565b6000818301905082811015151561267f57fe5b80905092915050565b600073ffffffffffffffffffffffffffffffffffffffff168173ffffffffffffffffffffffffffffffffffffffff16141515156126c457600080fd5b8073ffffffffffffffffffffffffffffffffffffffff166000809054906101000a900473ffffffffffffffffffffffffffffffffffffffff1673ffffffffffffffffffffffffffffffffffffffff167f8be0079c531659141344cd1fd0a4f28419497f9722a3daafe3b4186f6b6457e060405160405180910390a3806000806101000a81548173ffffffffffffffffffffffffffffffffffffffff021916908373ffffffffffffffffffffffffffffffffffffffff16021790555050565b606060405190810160405280600073ffffffffffffffffffffffffffffffffffffffff168152602001600081526020016000815250905600a165627a7a723058202729f6ad9b519ad581dd7fe07b29441bfd2673d7a034c186aa7fa1a2e95ced610029",
  "source": "pragma solidity ^0.4.24;\r\n\r\nimport \"./ERC20Basic.sol\";\r\nimport \"./SafeMath.sol\";\r\nimport \"./ERC20.sol\";\r\nimport \"./Claimable.sol\";\r\n\r\n\r\n/**\r\n * @title Alethena Shares\r\n * @author Benjamin Rickenbacher, benjamin@alethena.com\r\n * @author Luzius Meisser, luzius@meissereconomics.com\r\n * @dev These tokens are based on the ERC20 standard and the open-zeppelin library.\r\n *\r\n * These tokens are uncertified alethena shares (Wertrechte according to the Swiss code of obligations),\r\n * with this smart contract serving as onwership registry (Wertrechtebuch), but not as shareholder\r\n * registry, which is kept separate and run by the company. This is equivalent to the traditional system\r\n * of having physical share certificates kept at home by the shareholders and a shareholder registry run by\r\n * the company. Just like with physical certificates, the owners of the tokens are the owners of the shares.\r\n * However, in order to exercise their rights (for example receive a dividend), shareholders must register\r\n * with the company. For example, in case the company pays out a dividend to a previous shareholder because\r\n * the current shareholder did not register, the company cannot be held liable for paying the dividend to\r\n * the \"wrong\" shareholder. In relation to the company, only the registered shareholders count as such.\r\n * Registration requires setting up an account with ledgy.com providing your name and address and proving\r\n * ownership over your addresses.\r\n * @notice The main addition is a functionality that allows the user to claim that the key for a certain address is lost.\r\n * @notice In order to prevent malicious attempts, a collateral needs to be posted.\r\n * @notice The contract owner can delete claims in case of disputes.\r\n *\r\n * https://github.com/ethereum/EIPs/issues/20\r\n * Based on code by FirstBlood: https://github.com/Firstbloodio/token/blob/master/smart_contract/FirstBloodToken.sol\r\n */\r\ncontract AlethenaShares is ERC20, Claimable {\r\n\r\n    using SafeMath for uint256;\r\n\r\n      /** URL where the source code as well as the terms and conditions can be found. */\r\n    string public constant termsAndConditions = \"shares.alethena.com\";\r\n\r\n    mapping(address => uint256) balances;\r\n    uint256 totalSupply_;        // total number of tokenized shares, sum of all balances\r\n    uint256 totalShares_ = 1000; // total number of outstanding shares, maybe not all tokenized\r\n\r\n    event Mint(address shareholder, uint256 amount, string message);\r\n    event Unmint(uint256 amount, string message);\r\n\r\n  /** @dev Total number of tokens in existence */\r\n    function totalSupply() public view returns (uint256) {\r\n        return totalSupply_;\r\n    }\r\n        \r\n  /** @dev Total number of shares in existence, not necessarily all represented by a token. \r\n    * @dev This could be useful to calculate the total market cap.\r\n    */\r\n    function totalShares() public view returns (uint256) {\r\n        return totalShares_;\r\n    }\r\n\r\n    function setTotalShares(uint256 _newTotalShares) public onlyOwner() {\r\n        require(_newTotalShares >= totalSupply());\r\n        totalShares_ = _newTotalShares;\r\n    }\r\n\r\n  /** @dev Increases the number of the tokenized shares. If the shares are newly issued, the share total also needs to be increased. */\r\n    function mint(address shareholder, uint256 _amount, string _message) public onlyOwner() {\r\n        require(_amount > 0);\r\n        require(totalSupply_ + _amount <= totalShares_);\r\n        balances[shareholder] = balances[shareholder].add(_amount);\r\n        totalSupply_ = totalSupply_ + _amount;\r\n        emit Mint(shareholder, _amount, _message);\r\n    }\r\n\r\n/** Decrease the number of the tokenized shares. There are two use-cases for this function:\r\n *  1) a capital decrease with a destruction of the shares, in which case the law requires that the\r\n *     destroyed shares are currently owned by the company.\r\n *  2) a shareholder wants to take shares offline. This can only happen with the agreement of the \r\n *     the company. To do so, the shares must be transferred to the company first, the company call\r\n *     this function and then assigning the untokenized shares back to the shareholder in whatever\r\n *     way the new form (e.g. printed certificate) of the shares requires.\r\n */\r\n    function unmint(uint256 _amount, string _message) public onlyOwner() {\r\n        require(_amount > 0);\r\n        require(_amount >= balanceOf(owner));\r\n        balances[owner] = balances[owner].sub(_amount);\r\n        totalSupply_ = totalSupply_ - _amount;\r\n        emit Unmint(_amount, _message);\r\n    }\r\n\r\n  /** This contract is pausible.  */\r\n    bool public isPaused = false;\r\n\r\n  /** @dev Function to set pause.  */\r\n    function pause(bool _pause, string _message) public onlyOwner() {\r\n        isPaused = _pause;\r\n        emit Pause(_pause, _message);\r\n    }\r\n\r\n    event Pause(bool paused, string message);\r\n\r\n//////////////////////////////////////////////////////////////////////////////////////////////////////////////\r\n/** \r\nThe next section contains standard ERC20 routines.\r\nMain change: Transfer functions have an additional post function which resolves claims if applicable.\r\n */\r\n//////////////////////////////////////////////////////////////////////////////////////////////////////////////\r\n\r\n  /**\r\n  * @dev Transfer token for a specified address\r\n  * @param _to The address to transfer to.\r\n  * @param _value The amount to be transferred.\r\n  */\r\n    function transfer(address _to, uint256 _value) public returns (bool) {\r\n        clearClaim();\r\n        internalTransfer(msg.sender, _to, _value);\r\n        return true;\r\n    }\r\n\r\n    function internalTransfer(address _from, address _to, uint256 _value) internal {\r\n        require(!isPaused);\r\n        require(_to != address(0));\r\n        require(_value <= balances[_from]);\r\n        balances[_from] = balances[_from].sub(_value);\r\n        balances[_to] = balances[_to].add(_value);\r\n        emit Transfer(_from, _to, _value);\r\n    }\r\n\r\n  /**\r\n  * @dev Gets the balance of the specified address.\r\n  * @param _owner The address to query the the balance of.\r\n  * @return An uint256 representing the amount owned by the passed address.\r\n  */\r\n    function balanceOf(address _owner) public view returns (uint256) {\r\n        return balances[_owner];\r\n    }\r\n\r\n    mapping (address => mapping (address => uint256)) internal allowed;\r\n\r\n\r\n  /**\r\n   * @dev Transfer tokens from one address to another\r\n   * @param _from address The address which you want to send tokens from\r\n   * @param _to address The address which you want to transfer to\r\n   * @param _value uint256 the amount of tokens to be transferred\r\n   */\r\n    function transferFrom(address _from, address _to, uint256 _value) public returns (bool) {\r\n        require(_value <= allowed[_from][msg.sender]);\r\n        internalTransfer(_from, _to, _value);\r\n        allowed[_from][msg.sender] = allowed[_from][msg.sender].sub(_value);\r\n        return true;\r\n    }\r\n\r\n  /**\r\n   * @dev Approve the passed address to spend the specified amount of tokens on behalf of msg.sender.\r\n   * Beware that changing an allowance with this method brings the risk that someone may use both the old\r\n   * and the new allowance by unfortunate transaction ordering. One possible solution to mitigate this\r\n   * race condition is to first reduce the spender's allowance to 0 and set the desired value afterwards:\r\n   * https://github.com/ethereum/EIPs/issues/20#issuecomment-263524729\r\n   * @param _spender The address which will spend the funds.\r\n   * @param _value The amount of tokens to be spent.\r\n   */\r\n    function approve(address _spender, uint256 _value) public returns (bool) {\r\n        require(!isPaused);\r\n        allowed[msg.sender][_spender] = _value;\r\n        emit Approval(msg.sender, _spender, _value);\r\n        return true;\r\n    }\r\n\r\n  /**\r\n   * @dev Function to check the amount of tokens that an owner allowed to a spender.\r\n   * @param _owner address The address which owns the funds.\r\n   * @param _spender address The address which will spend the funds.\r\n   * @return A uint256 specifying the amount of tokens still available for the spender.\r\n   */\r\n    function allowance(\r\n        address _owner,\r\n        address _spender\r\n    )\r\n    public\r\n    view\r\n    returns (uint256)\r\n  {\r\n        return allowed[_owner][_spender];\r\n    }\r\n\r\n  /**\r\n   * @dev Increase the amount of tokens that an owner allowed to a spender.\r\n   * approve should be called when allowed[_spender] == 0. To increment\r\n   * allowed value is better to use this function to avoid 2 calls (and wait until\r\n   * the first transaction is mined)\r\n   * From MonolithDAO Token.sol\r\n   * @param _spender The address which will spend the funds.\r\n   * @param _addedValue The amount of tokens to increase the allowance by.\r\n   */\r\n    function increaseApproval(\r\n        address _spender,\r\n        uint256 _addedValue\r\n    )\r\n        public\r\n        returns (bool)\r\n    {\r\n        require(!isPaused);\r\n        allowed[msg.sender][_spender] = (\r\n        allowed[msg.sender][_spender].add(_addedValue));\r\n        emit Approval(msg.sender, _spender, allowed[msg.sender][_spender]);\r\n        return true;\r\n    }\r\n\r\n  /**\r\n   * @dev Decrease the amount of tokens that an owner allowed to a spender.\r\n   * approve should be called when allowed[_spender] == 0. To decrement\r\n   * allowed value is better to use this function to avoid 2 calls (and wait until\r\n   * the first transaction is mined)\r\n   * From MonolithDAO Token.sol\r\n   * @param _spender The address which will spend the funds.\r\n   * @param _subtractedValue The amount of tokens to decrease the allowance by.\r\n   */\r\n    function decreaseApproval(\r\n        address _spender,\r\n        uint256 _subtractedValue\r\n    )\r\n        public\r\n        returns (bool)\r\n    {\r\n        require(!isPaused);\r\n        uint256 oldValue = allowed[msg.sender][_spender];\r\n        if (_subtractedValue > oldValue) {\r\n            allowed[msg.sender][_spender] = 0;\r\n        } else {\r\n            allowed[msg.sender][_spender] = oldValue.sub(_subtractedValue);\r\n        }\r\n        emit Approval(msg.sender, _spender, allowed[msg.sender][_spender]);\r\n        return true;\r\n    }\r\n\r\n}",
  "sourcePath": "C:\\Users\\Luzius\\Documents\\Instruction-Token\\InstructionToken\\contracts\\AlethenaShares.sol",
  "compiler": {
    "name": "solc",
    "version": "0.4.24+commit.e67f0147.Emscripten.clang"
  },
  "schemaVersion": "2.0.1",
  "updatedAt": "2018-08-02T12:53:31.954Z"
}