{
  "contractName": "InstructionToken",
  "abi": [
    {
      "constant": true,
      "inputs": [
        {
          "name": "",
          "type": "address"
        },
        {
          "name": "",
          "type": "address"
        }
      ],
      "name": "claims",
      "outputs": [
        {
          "name": "",
          "type": "uint256"
        }
      ],
      "payable": false,
      "stateMutability": "view",
      "type": "function"
    },
    {
      "constant": true,
      "inputs": [],
      "name": "mintable",
      "outputs": [
        {
          "name": "",
          "type": "bool"
        }
      ],
      "payable": false,
      "stateMutability": "view",
      "type": "function"
    },
    {
      "constant": true,
      "inputs": [],
      "name": "pauseMessage",
      "outputs": [
        {
          "name": "",
          "type": "string"
        }
      ],
      "payable": false,
      "stateMutability": "view",
      "type": "function"
    },
    {
      "constant": false,
      "inputs": [],
      "name": "renounceOwnership",
      "outputs": [],
      "payable": false,
      "stateMutability": "nonpayable",
      "type": "function"
    },
    {
      "constant": true,
      "inputs": [],
      "name": "owner",
      "outputs": [
        {
          "name": "",
          "type": "address"
        }
      ],
      "payable": false,
      "stateMutability": "view",
      "type": "function"
    },
    {
      "constant": true,
      "inputs": [],
      "name": "isPaused",
      "outputs": [
        {
          "name": "",
          "type": "bool"
        }
      ],
      "payable": false,
      "stateMutability": "view",
      "type": "function"
    },
    {
      "constant": true,
      "inputs": [],
      "name": "TermsAndConditions",
      "outputs": [
        {
          "name": "",
          "type": "string"
        }
      ],
      "payable": false,
      "stateMutability": "view",
      "type": "function"
    },
    {
      "constant": false,
      "inputs": [
        {
          "name": "_newOwner",
          "type": "address"
        }
      ],
      "name": "transferOwnership",
      "outputs": [],
      "payable": false,
      "stateMutability": "nonpayable",
      "type": "function"
    },
    {
      "constant": true,
      "inputs": [
        {
          "name": "",
          "type": "address"
        },
        {
          "name": "",
          "type": "uint256"
        }
      ],
      "name": "indices",
      "outputs": [
        {
          "name": "",
          "type": "address"
        }
      ],
      "payable": false,
      "stateMutability": "view",
      "type": "function"
    },
    {
      "anonymous": false,
      "inputs": [],
      "name": "mintingDone",
      "type": "event"
    },
    {
      "anonymous": false,
      "inputs": [],
      "name": "CollateralRateChanged",
      "type": "event"
    },
    {
      "anonymous": false,
      "inputs": [],
      "name": "Pause",
      "type": "event"
    },
    {
      "anonymous": false,
      "inputs": [],
      "name": "Unpause",
      "type": "event"
    },
    {
      "anonymous": false,
      "inputs": [],
      "name": "TCChanged",
      "type": "event"
    },
    {
      "anonymous": false,
      "inputs": [
        {
          "indexed": false,
          "name": "_receiver",
          "type": "address"
        },
        {
          "indexed": false,
          "name": "_amount",
          "type": "uint256"
        }
      ],
      "name": "Mint",
      "type": "event"
    },
    {
      "anonymous": false,
      "inputs": [
        {
          "indexed": true,
          "name": "_lostAddress",
          "type": "address"
        },
        {
          "indexed": true,
          "name": "_claimer",
          "type": "address"
        },
        {
          "indexed": false,
          "name": "_lockTime",
          "type": "uint256"
        }
      ],
      "name": "ClaimMade",
      "type": "event"
    },
    {
      "anonymous": false,
      "inputs": [
        {
          "indexed": true,
          "name": "_lostAddress",
          "type": "address"
        },
        {
          "indexed": true,
          "name": "_claimer",
          "type": "address"
        }
      ],
      "name": "ClaimDeleted",
      "type": "event"
    },
    {
      "anonymous": false,
      "inputs": [
        {
          "indexed": true,
          "name": "previousOwner",
          "type": "address"
        }
      ],
      "name": "OwnershipRenounced",
      "type": "event"
    },
    {
      "anonymous": false,
      "inputs": [
        {
          "indexed": true,
          "name": "previousOwner",
          "type": "address"
        },
        {
          "indexed": true,
          "name": "newOwner",
          "type": "address"
        }
      ],
      "name": "OwnershipTransferred",
      "type": "event"
    },
    {
      "anonymous": false,
      "inputs": [
        {
          "indexed": true,
          "name": "owner",
          "type": "address"
        },
        {
          "indexed": true,
          "name": "spender",
          "type": "address"
        },
        {
          "indexed": false,
          "name": "value",
          "type": "uint256"
        }
      ],
      "name": "Approval",
      "type": "event"
    },
    {
      "anonymous": false,
      "inputs": [
        {
          "indexed": true,
          "name": "from",
          "type": "address"
        },
        {
          "indexed": true,
          "name": "to",
          "type": "address"
        },
        {
          "indexed": false,
          "name": "value",
          "type": "uint256"
        }
      ],
      "name": "Transfer",
      "type": "event"
    },
    {
      "constant": true,
      "inputs": [],
      "name": "totalSupply",
      "outputs": [
        {
          "name": "",
          "type": "uint256"
        }
      ],
      "payable": false,
      "stateMutability": "view",
      "type": "function"
    },
    {
      "constant": true,
      "inputs": [],
      "name": "maxSupply",
      "outputs": [
        {
          "name": "",
          "type": "uint256"
        }
      ],
      "payable": false,
      "stateMutability": "view",
      "type": "function"
    },
    {
      "constant": false,
      "inputs": [
        {
          "name": "_newMaxSupply",
          "type": "uint256"
        }
      ],
      "name": "setSupply",
      "outputs": [
        {
          "name": "",
          "type": "bool"
        }
      ],
      "payable": false,
      "stateMutability": "nonpayable",
      "type": "function"
    },
    {
      "constant": false,
      "inputs": [],
      "name": "endMinting",
      "outputs": [
        {
          "name": "",
          "type": "bool"
        }
      ],
      "payable": false,
      "stateMutability": "nonpayable",
      "type": "function"
    },
    {
      "constant": false,
      "inputs": [
        {
          "name": "_collateralRate",
          "type": "uint256"
        }
      ],
      "name": "setCollateralRate",
      "outputs": [
        {
          "name": "",
          "type": "bool"
        }
      ],
      "payable": false,
      "stateMutability": "nonpayable",
      "type": "function"
    },
    {
      "constant": false,
      "inputs": [
        {
          "name": "_TermsAndConditions",
          "type": "string"
        }
      ],
      "name": "setTC",
      "outputs": [
        {
          "name": "",
          "type": "bool"
        }
      ],
      "payable": false,
      "stateMutability": "nonpayable",
      "type": "function"
    },
    {
      "constant": false,
      "inputs": [
        {
          "name": "_inputMessage",
          "type": "string"
        }
      ],
      "name": "pause",
      "outputs": [
        {
          "name": "",
          "type": "bool"
        }
      ],
      "payable": false,
      "stateMutability": "nonpayable",
      "type": "function"
    },
    {
      "constant": false,
      "inputs": [],
      "name": "unpause",
      "outputs": [
        {
          "name": "",
          "type": "bool"
        }
      ],
      "payable": false,
      "stateMutability": "nonpayable",
      "type": "function"
    },
    {
      "constant": false,
      "inputs": [
        {
          "name": "_to",
          "type": "address"
        },
        {
          "name": "_value",
          "type": "uint256"
        }
      ],
      "name": "transfer",
      "outputs": [
        {
          "name": "",
          "type": "bool"
        }
      ],
      "payable": false,
      "stateMutability": "nonpayable",
      "type": "function"
    },
    {
      "constant": true,
      "inputs": [
        {
          "name": "_owner",
          "type": "address"
        }
      ],
      "name": "balanceOf",
      "outputs": [
        {
          "name": "",
          "type": "uint256"
        }
      ],
      "payable": false,
      "stateMutability": "view",
      "type": "function"
    },
    {
      "constant": false,
      "inputs": [
        {
          "name": "_from",
          "type": "address"
        },
        {
          "name": "_to",
          "type": "address"
        },
        {
          "name": "_value",
          "type": "uint256"
        }
      ],
      "name": "transferFrom",
      "outputs": [
        {
          "name": "",
          "type": "bool"
        }
      ],
      "payable": false,
      "stateMutability": "nonpayable",
      "type": "function"
    },
    {
      "constant": false,
      "inputs": [
        {
          "name": "_spender",
          "type": "address"
        },
        {
          "name": "_value",
          "type": "uint256"
        }
      ],
      "name": "approve",
      "outputs": [
        {
          "name": "",
          "type": "bool"
        }
      ],
      "payable": false,
      "stateMutability": "nonpayable",
      "type": "function"
    },
    {
      "constant": true,
      "inputs": [
        {
          "name": "_owner",
          "type": "address"
        },
        {
          "name": "_spender",
          "type": "address"
        }
      ],
      "name": "allowance",
      "outputs": [
        {
          "name": "",
          "type": "uint256"
        }
      ],
      "payable": false,
      "stateMutability": "view",
      "type": "function"
    },
    {
      "constant": false,
      "inputs": [
        {
          "name": "_spender",
          "type": "address"
        },
        {
          "name": "_addedValue",
          "type": "uint256"
        }
      ],
      "name": "increaseApproval",
      "outputs": [
        {
          "name": "",
          "type": "bool"
        }
      ],
      "payable": false,
      "stateMutability": "nonpayable",
      "type": "function"
    },
    {
      "constant": false,
      "inputs": [
        {
          "name": "_spender",
          "type": "address"
        },
        {
          "name": "_subtractedValue",
          "type": "uint256"
        }
      ],
      "name": "decreaseApproval",
      "outputs": [
        {
          "name": "",
          "type": "bool"
        }
      ],
      "payable": false,
      "stateMutability": "nonpayable",
      "type": "function"
    },
    {
      "constant": false,
      "inputs": [
        {
          "name": "_receivers",
          "type": "address[]"
        },
        {
          "name": "_amounts",
          "type": "uint256[]"
        }
      ],
      "name": "mint",
      "outputs": [
        {
          "name": "",
          "type": "bool"
        }
      ],
      "payable": false,
      "stateMutability": "nonpayable",
      "type": "function"
    },
    {
      "constant": true,
      "inputs": [
        {
          "name": "_claimedAddress",
          "type": "address"
        },
        {
          "name": "_claimerAddress",
          "type": "address"
        }
      ],
      "name": "showClaim",
      "outputs": [
        {
          "name": "",
          "type": "uint256"
        }
      ],
      "payable": false,
      "stateMutability": "view",
      "type": "function"
    },
    {
      "constant": true,
      "inputs": [
        {
          "name": "_claimedAddress",
          "type": "address"
        }
      ],
      "name": "showAllClaims",
      "outputs": [
        {
          "name": "",
          "type": "address[]"
        }
      ],
      "payable": false,
      "stateMutability": "view",
      "type": "function"
    },
    {
      "constant": true,
      "inputs": [
        {
          "name": "_claimedAddress",
          "type": "address"
        }
      ],
      "name": "showCollaterals",
      "outputs": [
        {
          "name": "",
          "type": "uint256"
        }
      ],
      "payable": false,
      "stateMutability": "view",
      "type": "function"
    },
    {
      "constant": false,
      "inputs": [
        {
          "name": "_lostAddress",
          "type": "address"
        }
      ],
      "name": "declareLost",
      "outputs": [
        {
          "name": "",
          "type": "bool"
        }
      ],
      "payable": true,
      "stateMutability": "payable",
      "type": "function"
    },
    {
      "constant": false,
      "inputs": [
        {
          "name": "_addressToBeResolved",
          "type": "address"
        }
      ],
      "name": "resolveClaim",
      "outputs": [
        {
          "name": "",
          "type": "bool"
        }
      ],
      "payable": false,
      "stateMutability": "nonpayable",
      "type": "function"
    },
    {
      "constant": false,
      "inputs": [
        {
          "name": "_lostAddress",
          "type": "address"
        },
        {
          "name": "_claimerAddress",
          "type": "address"
        }
      ],
      "name": "deleteClaim",
      "outputs": [
        {
          "name": "",
          "type": "bool"
        }
      ],
      "payable": false,
      "stateMutability": "nonpayable",
      "type": "function"
    }
  ],
  "bytecode": "0x60806040526103e86003556001600460006101000a81548160ff021916908315150217905550670de0b6b3a76400006005556000600660006101000a81548160ff0219169083151502179055506040805190810160405280601281526020017f436f6e747261637420697320616374697665000000000000000000000000000081525060079080519060200190620000999291906200012e565b506040805190810160405280601081526020017f7777772e616c657468656e612e636f6d0000000000000000000000000000000081525060089080519060200190620000e79291906200012e565b50336000806101000a81548173ffffffffffffffffffffffffffffffffffffffff021916908373ffffffffffffffffffffffffffffffffffffffff160217905550620001dd565b828054600181600116156101000203166002900490600052602060002090601f016020900481019282601f106200017157805160ff1916838001178555620001a2565b82800160010185558215620001a2579182015b82811115620001a157825182559160200191906001019062000184565b5b509050620001b19190620001b5565b5090565b620001da91905b80821115620001d6576000816000905550600101620001bc565b5090565b90565b6132cc80620001ed6000396000f30060806040526004361061018b576000357c0100000000000000000000000000000000000000000000000000000000900463ffffffff168063095ea7b31461019057806318160ddd146101f557806323b872dd146102205780633b4c4b25146102a55780633f4ba83a146102ea5780633f733c6b146103195780634b6b8a64146103905780634bf365df146103de5780634cb3d0e21461040d578063624b5ed41461049d57806366188463146104e257806367f27ba8146105475780636bd6d419146105df5780636da663551461063657806370a08231146106b7578063715018a61461070e5780638da5cb5b1461072557806394d645a81461077c5780639e6d19db146107d7578063a9059cbb14610858578063b187bd26146108bd578063c9b80418146108ec578063d5abeb0114610963578063d73dd6231461098e578063dd62ed3e146109f3578063e26b917e14610a6a578063e467f7e014610ae5578063ef70aebf14610ba6578063eff2e6b114610bd5578063f2fde38b14610c65578063f99b2b0114610ca8575b600080fd5b34801561019c57600080fd5b506101db600480360381019080803573ffffffffffffffffffffffffffffffffffffffff16906020019092919080359060200190929190505050610d35565b604051808215151515815260200191505060405180910390f35b34801561020157600080fd5b5061020a610e43565b6040518082815260200191505060405180910390f35b34801561022c57600080fd5b5061028b600480360381019080803573ffffffffffffffffffffffffffffffffffffffff169060200190929190803573ffffffffffffffffffffffffffffffffffffffff16906020019092919080359060200190929190505050610e4d565b604051808215151515815260200191505060405180910390f35b3480156102b157600080fd5b506102d060048036038101908080359060200190929190505050611233565b604051808215151515815260200191505060405180910390f35b3480156102f657600080fd5b506102ff61129c565b604051808215151515815260200191505060405180910390f35b34801561032557600080fd5b5061037a600480360381019080803573ffffffffffffffffffffffffffffffffffffffff169060200190929190803573ffffffffffffffffffffffffffffffffffffffff169060200190929190505050611393565b6040518082815260200191505060405180910390f35b6103c4600480360381019080803573ffffffffffffffffffffffffffffffffffffffff1690602001909291905050506113b8565b604051808215151515815260200191505060405180910390f35b3480156103ea57600080fd5b506103f36116c9565b604051808215151515815260200191505060405180910390f35b34801561041957600080fd5b506104226116dc565b6040518080602001828103825283818151815260200191508051906020019080838360005b83811015610462578082015181840152602081019050610447565b50505050905090810190601f16801561048f5780820380516001836020036101000a031916815260200191505b509250505060405180910390f35b3480156104a957600080fd5b506104c86004803603810190808035906020019092919050505061177a565b604051808215151515815260200191505060405180910390f35b3480156104ee57600080fd5b5061052d600480360381019080803573ffffffffffffffffffffffffffffffffffffffff1690602001909291908035906020019092919050505061180f565b604051808215151515815260200191505060405180910390f35b34801561055357600080fd5b50610588600480360381019080803573ffffffffffffffffffffffffffffffffffffffff169060200190929190505050611abc565b6040518080602001828103825283818151815260200191508051906020019060200280838360005b838110156105cb5780820151818401526020810190506105b0565b505050509050019250505060405180910390f35b3480156105eb57600080fd5b50610620600480360381019080803573ffffffffffffffffffffffffffffffffffffffff169060200190929190505050611b89565b6040518082815260200191505060405180910390f35b34801561064257600080fd5b5061069d600480360381019080803590602001908201803590602001908080601f0160208091040260200160405190810160405280939291908181526020018383808284378201915050505050509192919290505050611bd2565b604051808215151515815260200191505060405180910390f35b3480156106c357600080fd5b506106f8600480360381019080803573ffffffffffffffffffffffffffffffffffffffff169060200190929190505050611c96565b6040518082815260200191505060405180910390f35b34801561071a57600080fd5b50610723611cdf565b005b34801561073157600080fd5b5061073a611de1565b604051808273ffffffffffffffffffffffffffffffffffffffff1673ffffffffffffffffffffffffffffffffffffffff16815260200191505060405180910390f35b34801561078857600080fd5b506107bd600480360381019080803573ffffffffffffffffffffffffffffffffffffffff169060200190929190505050611e06565b604051808215151515815260200191505060405180910390f35b3480156107e357600080fd5b5061083e600480360381019080803590602001908201803590602001908080601f016020809104026020016040519081016040528093929190818152602001838380828437820191505050505050919291929050505061225e565b604051808215151515815260200191505060405180910390f35b34801561086457600080fd5b506108a3600480360381019080803573ffffffffffffffffffffffffffffffffffffffff16906020019092919080359060200190929190505050612303565b604051808215151515815260200191505060405180910390f35b3480156108c957600080fd5b506108d261254e565b604051808215151515815260200191505060405180910390f35b3480156108f857600080fd5b5061094d600480360381019080803573ffffffffffffffffffffffffffffffffffffffff169060200190929190803573ffffffffffffffffffffffffffffffffffffffff169060200190929190505050612561565b6040518082815260200191505060405180910390f35b34801561096f57600080fd5b506109786125e8565b6040518082815260200191505060405180910390f35b34801561099a57600080fd5b506109d9600480360381019080803573ffffffffffffffffffffffffffffffffffffffff169060200190929190803590602001909291905050506125f2565b604051808215151515815260200191505060405180910390f35b3480156109ff57600080fd5b50610a54600480360381019080803573ffffffffffffffffffffffffffffffffffffffff169060200190929190803573ffffffffffffffffffffffffffffffffffffffff16906020019092919050505061280a565b6040518082815260200191505060405180910390f35b348015610a7657600080fd5b50610acb600480360381019080803573ffffffffffffffffffffffffffffffffffffffff169060200190929190803573ffffffffffffffffffffffffffffffffffffffff169060200190929190505050612891565b604051808215151515815260200191505060405180910390f35b348015610af157600080fd5b50610b8c60048036038101908080359060200190820180359060200190808060200260200160405190810160405280939291908181526020018383602002808284378201915050505050509192919290803590602001908201803590602001908080602002602001604051908101604052809392919081815260200183836020028082843782019150505050505091929192905050506129d4565b604051808215151515815260200191505060405180910390f35b348015610bb257600080fd5b50610bbb612c57565b604051808215151515815260200191505060405180910390f35b348015610be157600080fd5b50610bea612cfe565b6040518080602001828103825283818151815260200191508051906020019080838360005b83811015610c2a578082015181840152602081019050610c0f565b50505050905090810190601f168015610c575780820380516001836020036101000a031916815260200191505b509250505060405180910390f35b348015610c7157600080fd5b50610ca6600480360381019080803573ffffffffffffffffffffffffffffffffffffffff169060200190929190505050612d9c565b005b348015610cb457600080fd5b50610cf3600480360381019080803573ffffffffffffffffffffffffffffffffffffffff16906020019092919080359060200190929190505050612e03565b604051808273ffffffffffffffffffffffffffffffffffffffff1673ffffffffffffffffffffffffffffffffffffffff16815260200191505060405180910390f35b6000600660009054906101000a900460ff16151515610d5357600080fd5b81600960003373ffffffffffffffffffffffffffffffffffffffff1673ffffffffffffffffffffffffffffffffffffffff16815260200190815260200160002060008573ffffffffffffffffffffffffffffffffffffffff1673ffffffffffffffffffffffffffffffffffffffff168152602001908152602001600020819055508273ffffffffffffffffffffffffffffffffffffffff163373ffffffffffffffffffffffffffffffffffffffff167f8c5be1e5ebec7d5bd14f71427d1e84f3dd0314c0f7b2291e5b200ac8c7c3b925846040518082815260200191505060405180910390a36001905092915050565b6000600254905090565b6000600660009054906101000a900460ff16151515610e6b57600080fd5b600073ffffffffffffffffffffffffffffffffffffffff168373ffffffffffffffffffffffffffffffffffffffff1614151515610ea757600080fd5b600160008573ffffffffffffffffffffffffffffffffffffffff1673ffffffffffffffffffffffffffffffffffffffff168152602001908152602001600020548211151515610ef557600080fd5b600960008573ffffffffffffffffffffffffffffffffffffffff1673ffffffffffffffffffffffffffffffffffffffff16815260200190815260200160002060003373ffffffffffffffffffffffffffffffffffffffff1673ffffffffffffffffffffffffffffffffffffffff168152602001908152602001600020548211151515610f8057600080fd5b610fd282600160008773ffffffffffffffffffffffffffffffffffffffff1673ffffffffffffffffffffffffffffffffffffffff16815260200190815260200160002054612e5090919063ffffffff16565b600160008673ffffffffffffffffffffffffffffffffffffffff1673ffffffffffffffffffffffffffffffffffffffff1681526020019081526020016000208190555061106782600160008673ffffffffffffffffffffffffffffffffffffffff1673ffffffffffffffffffffffffffffffffffffffff16815260200190815260200160002054612e6990919063ffffffff16565b600160008573ffffffffffffffffffffffffffffffffffffffff1673ffffffffffffffffffffffffffffffffffffffff1681526020019081526020016000208190555061113982600960008773ffffffffffffffffffffffffffffffffffffffff1673ffffffffffffffffffffffffffffffffffffffff16815260200190815260200160002060003373ffffffffffffffffffffffffffffffffffffffff1673ffffffffffffffffffffffffffffffffffffffff16815260200190815260200160002054612e5090919063ffffffff16565b600960008673ffffffffffffffffffffffffffffffffffffffff1673ffffffffffffffffffffffffffffffffffffffff16815260200190815260200160002060003373ffffffffffffffffffffffffffffffffffffffff1673ffffffffffffffffffffffffffffffffffffffff168152602001908152602001600020819055506111c233611e06565b508273ffffffffffffffffffffffffffffffffffffffff168473ffffffffffffffffffffffffffffffffffffffff167fddf252ad1be2c89b69c2b068fc378daa952ba7f163c4a11628f55a4df523b3ef846040518082815260200191505060405180910390a3600190509392505050565b60008060009054906101000a900473ffffffffffffffffffffffffffffffffffffffff1673ffffffffffffffffffffffffffffffffffffffff163373ffffffffffffffffffffffffffffffffffffffff1614151561129057600080fd5b81600381905550919050565b60008060009054906101000a900473ffffffffffffffffffffffffffffffffffffffff1673ffffffffffffffffffffffffffffffffffffffff163373ffffffffffffffffffffffffffffffffffffffff161415156112f957600080fd5b6000600660006101000a81548160ff0219169083151502179055506040805190810160405280601281526020017f436f6e74726163742069732061637469766500000000000000000000000000008152506007908051906020019061135f9291906131fb565b507f7805862f689e2f13df9f062ff482ad3ad112aca9e0847911ed832e158c525b3360405160405180910390a16001905090565b600a602052816000526040600020602052806000526040600020600091509150505481565b6000600660009054906101000a900460ff161515156113d657600080fd5b600554600160008473ffffffffffffffffffffffffffffffffffffffff1673ffffffffffffffffffffffffffffffffffffffff16815260200190815260200160002054023414151561142757600080fd5b603c4201600a60008473ffffffffffffffffffffffffffffffffffffffff1673ffffffffffffffffffffffffffffffffffffffff16815260200190815260200160002060003373ffffffffffffffffffffffffffffffffffffffff1673ffffffffffffffffffffffffffffffffffffffff16815260200190815260200160002081905550600b60008373ffffffffffffffffffffffffffffffffffffffff1673ffffffffffffffffffffffffffffffffffffffff1681526020019081526020016000203390806001815401808255809150509060018203906000526020600020016000909192909190916101000a81548173ffffffffffffffffffffffffffffffffffffffff021916908373ffffffffffffffffffffffffffffffffffffffff160217905550506115a034600c60008573ffffffffffffffffffffffffffffffffffffffff1673ffffffffffffffffffffffffffffffffffffffff16815260200190815260200160002054612e6990919063ffffffff16565b600c60008473ffffffffffffffffffffffffffffffffffffffff1673ffffffffffffffffffffffffffffffffffffffff168152602001908152602001600020819055503373ffffffffffffffffffffffffffffffffffffffff168273ffffffffffffffffffffffffffffffffffffffff167f1982ca8958fc8a8176cb52be509260f4bc5af7ce04e1533711793f1c56dd5359600a60008673ffffffffffffffffffffffffffffffffffffffff1673ffffffffffffffffffffffffffffffffffffffff16815260200190815260200160002060003373ffffffffffffffffffffffffffffffffffffffff1673ffffffffffffffffffffffffffffffffffffffff168152602001908152602001600020546040518082815260200191505060405180910390a3919050565b600460009054906101000a900460ff1681565b60078054600181600116156101000203166002900480601f0160208091040260200160405190810160405280929190818152602001828054600181600116156101000203166002900480156117725780601f1061174757610100808354040283529160200191611772565b820191906000526020600020905b81548152906001019060200180831161175557829003601f168201915b505050505081565b60008060009054906101000a900473ffffffffffffffffffffffffffffffffffffffff1673ffffffffffffffffffffffffffffffffffffffff163373ffffffffffffffffffffffffffffffffffffffff161415156117d757600080fd5b816005819055507f4d0929ed394f8d01f657c69a385c8e0141ab783140ec7d456c80b969d83132df60405160405180910390a1919050565b600080600660009054906101000a900460ff1615151561182e57600080fd5b600960003373ffffffffffffffffffffffffffffffffffffffff1673ffffffffffffffffffffffffffffffffffffffff16815260200190815260200160002060008573ffffffffffffffffffffffffffffffffffffffff1673ffffffffffffffffffffffffffffffffffffffff1681526020019081526020016000205490508083111561193c576000600960003373ffffffffffffffffffffffffffffffffffffffff1673ffffffffffffffffffffffffffffffffffffffff16815260200190815260200160002060008673ffffffffffffffffffffffffffffffffffffffff1673ffffffffffffffffffffffffffffffffffffffff168152602001908152602001600020819055506119d0565b61194f8382612e5090919063ffffffff16565b600960003373ffffffffffffffffffffffffffffffffffffffff1673ffffffffffffffffffffffffffffffffffffffff16815260200190815260200160002060008673ffffffffffffffffffffffffffffffffffffffff1673ffffffffffffffffffffffffffffffffffffffff168152602001908152602001600020819055505b8373ffffffffffffffffffffffffffffffffffffffff163373ffffffffffffffffffffffffffffffffffffffff167f8c5be1e5ebec7d5bd14f71427d1e84f3dd0314c0f7b2291e5b200ac8c7c3b925600960003373ffffffffffffffffffffffffffffffffffffffff1673ffffffffffffffffffffffffffffffffffffffff16815260200190815260200160002060008873ffffffffffffffffffffffffffffffffffffffff1673ffffffffffffffffffffffffffffffffffffffff168152602001908152602001600020546040518082815260200191505060405180910390a3600191505092915050565b6060600b60008373ffffffffffffffffffffffffffffffffffffffff1673ffffffffffffffffffffffffffffffffffffffff168152602001908152602001600020805480602002602001604051908101604052809291908181526020018280548015611b7d57602002820191906000526020600020905b8160009054906101000a900473ffffffffffffffffffffffffffffffffffffffff1673ffffffffffffffffffffffffffffffffffffffff1681526020019060010190808311611b33575b50505050509050919050565b6000600c60008373ffffffffffffffffffffffffffffffffffffffff1673ffffffffffffffffffffffffffffffffffffffff168152602001908152602001600020549050919050565b60008060009054906101000a900473ffffffffffffffffffffffffffffffffffffffff1673ffffffffffffffffffffffffffffffffffffffff163373ffffffffffffffffffffffffffffffffffffffff16141515611c2f57600080fd5b6001600660006101000a81548160ff0219169083151502179055508160079080519060200190611c609291906131fb565b507f6985a02210a168e66602d3235cb6db0e70f92b3ba4d376a33c0f3d9434bff62560405160405180910390a160019050919050565b6000600160008373ffffffffffffffffffffffffffffffffffffffff1673ffffffffffffffffffffffffffffffffffffffff168152602001908152602001600020549050919050565b6000809054906101000a900473ffffffffffffffffffffffffffffffffffffffff1673ffffffffffffffffffffffffffffffffffffffff163373ffffffffffffffffffffffffffffffffffffffff16141515611d3a57600080fd5b6000809054906101000a900473ffffffffffffffffffffffffffffffffffffffff1673ffffffffffffffffffffffffffffffffffffffff167ff8df31144d9c2f0f6b59d69b8b98abd5459d07f2742c4df920b25aae33c6482060405160405180910390a260008060006101000a81548173ffffffffffffffffffffffffffffffffffffffff021916908373ffffffffffffffffffffffffffffffffffffffff160217905550565b6000809054906101000a900473ffffffffffffffffffffffffffffffffffffffff1681565b6000600660009054906101000a900460ff16151515611e2457600080fd5b8173ffffffffffffffffffffffffffffffffffffffff163373ffffffffffffffffffffffffffffffffffffffff161415611ef1573373ffffffffffffffffffffffffffffffffffffffff166108fc600c60008573ffffffffffffffffffffffffffffffffffffffff1673ffffffffffffffffffffffffffffffffffffffff168152602001908152602001600020549081150290604051600060405180830381858888f19350505050158015611edd573d6000803e3d6000fd5b50611ee782612e85565b5060019050612259565b6000600a60008473ffffffffffffffffffffffffffffffffffffffff1673ffffffffffffffffffffffffffffffffffffffff16815260200190815260200160002060003373ffffffffffffffffffffffffffffffffffffffff1673ffffffffffffffffffffffffffffffffffffffff1681526020019081526020016000205414151515611f7d57600080fd5b42600a60008473ffffffffffffffffffffffffffffffffffffffff1673ffffffffffffffffffffffffffffffffffffffff16815260200190815260200160002060003373ffffffffffffffffffffffffffffffffffffffff1673ffffffffffffffffffffffffffffffffffffffff1681526020019081526020016000205410151561200757600080fd5b3373ffffffffffffffffffffffffffffffffffffffff166108fc600c60008573ffffffffffffffffffffffffffffffffffffffff1673ffffffffffffffffffffffffffffffffffffffff168152602001908152602001600020549081150290604051600060405180830381858888f1935050505015801561208c573d6000803e3d6000fd5b5061211e600160008473ffffffffffffffffffffffffffffffffffffffff1673ffffffffffffffffffffffffffffffffffffffff16815260200190815260200160002054600160003373ffffffffffffffffffffffffffffffffffffffff1673ffffffffffffffffffffffffffffffffffffffff16815260200190815260200160002054612e6990919063ffffffff16565b600160003373ffffffffffffffffffffffffffffffffffffffff1673ffffffffffffffffffffffffffffffffffffffff168152602001908152602001600020819055506000600160008473ffffffffffffffffffffffffffffffffffffffff1673ffffffffffffffffffffffffffffffffffffffff168152602001908152602001600020819055503373ffffffffffffffffffffffffffffffffffffffff168273ffffffffffffffffffffffffffffffffffffffff167fddf252ad1be2c89b69c2b068fc378daa952ba7f163c4a11628f55a4df523b3ef600160008673ffffffffffffffffffffffffffffffffffffffff1673ffffffffffffffffffffffffffffffffffffffff168152602001908152602001600020546040518082815260200191505060405180910390a361225382612e85565b50600190505b919050565b60008060009054906101000a900473ffffffffffffffffffffffffffffffffffffffff1673ffffffffffffffffffffffffffffffffffffffff163373ffffffffffffffffffffffffffffffffffffffff161415156122bb57600080fd5b81600890805190602001906122d19291906131fb565b507fb86bbb983387f75db1aaf41b636b5ff1c60905559ed94db6deb62bd0a46976be60405160405180910390a1919050565b6000600660009054906101000a900460ff1615151561232157600080fd5b600073ffffffffffffffffffffffffffffffffffffffff168373ffffffffffffffffffffffffffffffffffffffff161415151561235d57600080fd5b600160003373ffffffffffffffffffffffffffffffffffffffff1673ffffffffffffffffffffffffffffffffffffffff1681526020019081526020016000205482111515156123ab57600080fd5b6123fd82600160003373ffffffffffffffffffffffffffffffffffffffff1673ffffffffffffffffffffffffffffffffffffffff16815260200190815260200160002054612e5090919063ffffffff16565b600160003373ffffffffffffffffffffffffffffffffffffffff1673ffffffffffffffffffffffffffffffffffffffff1681526020019081526020016000208190555061249282600160008673ffffffffffffffffffffffffffffffffffffffff1673ffffffffffffffffffffffffffffffffffffffff16815260200190815260200160002054612e6990919063ffffffff16565b600160008573ffffffffffffffffffffffffffffffffffffffff1673ffffffffffffffffffffffffffffffffffffffff168152602001908152602001600020819055506124de33611e06565b508273ffffffffffffffffffffffffffffffffffffffff163373ffffffffffffffffffffffffffffffffffffffff167fddf252ad1be2c89b69c2b068fc378daa952ba7f163c4a11628f55a4df523b3ef846040518082815260200191505060405180910390a36001905092915050565b600660009054906101000a900460ff1681565b6000600a60008473ffffffffffffffffffffffffffffffffffffffff1673ffffffffffffffffffffffffffffffffffffffff16815260200190815260200160002060008373ffffffffffffffffffffffffffffffffffffffff1673ffffffffffffffffffffffffffffffffffffffff16815260200190815260200160002054905092915050565b6000600354905090565b6000600660009054906101000a900460ff1615151561261057600080fd5b61269f82600960003373ffffffffffffffffffffffffffffffffffffffff1673ffffffffffffffffffffffffffffffffffffffff16815260200190815260200160002060008673ffffffffffffffffffffffffffffffffffffffff1673ffffffffffffffffffffffffffffffffffffffff16815260200190815260200160002054612e6990919063ffffffff16565b600960003373ffffffffffffffffffffffffffffffffffffffff1673ffffffffffffffffffffffffffffffffffffffff16815260200190815260200160002060008573ffffffffffffffffffffffffffffffffffffffff1673ffffffffffffffffffffffffffffffffffffffff168152602001908152602001600020819055508273ffffffffffffffffffffffffffffffffffffffff163373ffffffffffffffffffffffffffffffffffffffff167f8c5be1e5ebec7d5bd14f71427d1e84f3dd0314c0f7b2291e5b200ac8c7c3b925600960003373ffffffffffffffffffffffffffffffffffffffff1673ffffffffffffffffffffffffffffffffffffffff16815260200190815260200160002060008773ffffffffffffffffffffffffffffffffffffffff1673ffffffffffffffffffffffffffffffffffffffff168152602001908152602001600020546040518082815260200191505060405180910390a36001905092915050565b6000600960008473ffffffffffffffffffffffffffffffffffffffff1673ffffffffffffffffffffffffffffffffffffffff16815260200190815260200160002060008373ffffffffffffffffffffffffffffffffffffffff1673ffffffffffffffffffffffffffffffffffffffff16815260200190815260200160002054905092915050565b60008060009054906101000a900473ffffffffffffffffffffffffffffffffffffffff1673ffffffffffffffffffffffffffffffffffffffff163373ffffffffffffffffffffffffffffffffffffffff161415156128ee57600080fd5b6000600a60008573ffffffffffffffffffffffffffffffffffffffff1673ffffffffffffffffffffffffffffffffffffffff16815260200190815260200160002060008473ffffffffffffffffffffffffffffffffffffffff1673ffffffffffffffffffffffffffffffffffffffff168152602001908152602001600020819055508173ffffffffffffffffffffffffffffffffffffffff168373ffffffffffffffffffffffffffffffffffffffff167f427bc004cdd1468def1921f7f7ea879d071c4a23cbfa04bf7020eaf594b1e36260405160405180910390a36001905092915050565b6000806000809054906101000a900473ffffffffffffffffffffffffffffffffffffffff1673ffffffffffffffffffffffffffffffffffffffff163373ffffffffffffffffffffffffffffffffffffffff16141515612a3257600080fd5b600660009054906101000a900460ff16151515612a4e57600080fd5b600460009054906101000a900460ff161515612a6957600080fd5b82518451141515612a7957600080fd5b600090505b8351811015612c4c57612ab38382815181101515612a9857fe5b90602001906020020151600254612e6990919063ffffffff16565b60028190555060035460025411151515612acc57600080fd5b612b4c8382815181101515612add57fe5b90602001906020020151600160008785815181101515612af957fe5b9060200190602002015173ffffffffffffffffffffffffffffffffffffffff1673ffffffffffffffffffffffffffffffffffffffff16815260200190815260200160002054612e6990919063ffffffff16565b600160008684815181101515612b5e57fe5b9060200190602002015173ffffffffffffffffffffffffffffffffffffffff1673ffffffffffffffffffffffffffffffffffffffff168152602001908152602001600020819055507f0f6798a560793a54c3bcfe86a93cde1e73087d944c0ea20544137d41213968858482815181101515612bd557fe5b906020019060200201518483815181101515612bed57fe5b90602001906020020151604051808373ffffffffffffffffffffffffffffffffffffffff1673ffffffffffffffffffffffffffffffffffffffff1681526020018281526020019250505060405180910390a18080600101915050612a7e565b600191505092915050565b60008060009054906101000a900473ffffffffffffffffffffffffffffffffffffffff1673ffffffffffffffffffffffffffffffffffffffff163373ffffffffffffffffffffffffffffffffffffffff16141515612cb457600080fd5b6000600460006101000a81548160ff0219169083151502179055507f8e2ae564c2ac84296dfc6e6befea015184f9fa8418bad8f9c72d666026573cd960405160405180910390a190565b60088054600181600116156101000203166002900480601f016020809104026020016040519081016040528092919081815260200182805460018160011615610100020316600290048015612d945780601f10612d6957610100808354040283529160200191612d94565b820191906000526020600020905b815481529060010190602001808311612d7757829003601f168201915b505050505081565b6000809054906101000a900473ffffffffffffffffffffffffffffffffffffffff1673ffffffffffffffffffffffffffffffffffffffff163373ffffffffffffffffffffffffffffffffffffffff16141515612df757600080fd5b612e0081613101565b50565b600b60205281600052604060002081815481101515612e1e57fe5b906000526020600020016000915091509054906101000a900473ffffffffffffffffffffffffffffffffffffffff1681565b6000828211151515612e5e57fe5b818303905092915050565b60008183019050828110151515612e7c57fe5b80905092915050565b6000806000600b60008573ffffffffffffffffffffffffffffffffffffffff1673ffffffffffffffffffffffffffffffffffffffff168152602001908152602001600020805490509150600090505b818110156130b1576000600a60008673ffffffffffffffffffffffffffffffffffffffff1673ffffffffffffffffffffffffffffffffffffffff1681526020019081526020016000206000600b60008873ffffffffffffffffffffffffffffffffffffffff1673ffffffffffffffffffffffffffffffffffffffff16815260200190815260200160002084815481101515612f6b57fe5b9060005260206000200160009054906101000a900473ffffffffffffffffffffffffffffffffffffffff1673ffffffffffffffffffffffffffffffffffffffff1673ffffffffffffffffffffffffffffffffffffffff16815260200190815260200160002081905550600b60008573ffffffffffffffffffffffffffffffffffffffff1673ffffffffffffffffffffffffffffffffffffffff1681526020019081526020016000208181548110151561302057fe5b9060005260206000200160009054906101000a900473ffffffffffffffffffffffffffffffffffffffff1673ffffffffffffffffffffffffffffffffffffffff168473ffffffffffffffffffffffffffffffffffffffff167f427bc004cdd1468def1921f7f7ea879d071c4a23cbfa04bf7020eaf594b1e36260405160405180910390a38080600101915050612ed4565b6000600c60008673ffffffffffffffffffffffffffffffffffffffff1673ffffffffffffffffffffffffffffffffffffffff16815260200190815260200160002081905550600192505050919050565b600073ffffffffffffffffffffffffffffffffffffffff168173ffffffffffffffffffffffffffffffffffffffff161415151561313d57600080fd5b8073ffffffffffffffffffffffffffffffffffffffff166000809054906101000a900473ffffffffffffffffffffffffffffffffffffffff1673ffffffffffffffffffffffffffffffffffffffff167f8be0079c531659141344cd1fd0a4f28419497f9722a3daafe3b4186f6b6457e060405160405180910390a3806000806101000a81548173ffffffffffffffffffffffffffffffffffffffff021916908373ffffffffffffffffffffffffffffffffffffffff16021790555050565b828054600181600116156101000203166002900490600052602060002090601f016020900481019282601f1061323c57805160ff191683800117855561326a565b8280016001018555821561326a579182015b8281111561326957825182559160200191906001019061324e565b5b509050613277919061327b565b5090565b61329d91905b80821115613299576000816000905550600101613281565b5090565b905600a165627a7a72305820e015479966bc620b3e601a53df3768241764a2784b6976594e2b6d5808c42e070029",
  "source": "pragma solidity ^0.4.24;\r\n\r\nimport \"./ERC20Basic.sol\";\r\nimport \"./SafeMath.sol\";\r\nimport \"./ERC20.sol\";\r\nimport \"./Ownable.sol\";\r\n\r\n\r\n/**\r\n * @title Instruction Token\r\n * @author Benjamin Rickenbacher, benjamin@alethena.com\r\n * @dev This is the \"instruction token\" based on the ERC20 standard and the open-zeppelin library.\r\n * @notice The main addition is a functionality that allows the user to claim that the key for a certain address is lost.\r\n * @notice In order to prevent malicious attempts, a collateral needs to be posted.\r\n * @notice The contract owner can delete claims in case of disputes.\r\n * \r\n * https://github.com/ethereum/EIPs/issues/20\r\n * Based on code by FirstBlood: https://github.com/Firstbloodio/token/blob/master/smart_contract/FirstBloodToken.sol\r\n */\r\ncontract InstructionToken is ERC20, Ownable {\r\n\r\n    using SafeMath for uint256;\r\n\r\n    mapping(address => uint256) balances;\r\n    uint256 totalSupply_;\r\n    uint256 maxSupply_  = 1000;\r\n\r\n    \r\n  /** @dev Total number of tokens in existence */\r\n  \r\n    function totalSupply() public view returns (uint256) {\r\n        return totalSupply_;\r\n    }\r\n        \r\n  /** @dev Upper limit enforced in minting function */\r\n\r\n    function maxSupply() public view returns (uint256) {\r\n        return maxSupply_;\r\n    }\r\n\r\n  /** @dev Set the limit. Used for example in case of capital increase */\r\n  \r\n    function setSupply(uint256 _newMaxSupply) public onlyOwner() returns(bool){\r\n        maxSupply_ = _newMaxSupply;\r\n    }\r\n\r\n  /** @dev Flag that indicates that minting is possible */\r\n\r\n    bool public mintable = true;\r\n    event mintingDone();\r\n\r\n  /** @dev Function to prevent any future minting. Cannot be undone! */\r\n\r\n    function endMinting() public onlyOwner() returns (bool){\r\n        mintable = false;\r\n        emit mintingDone();\r\n    }\r\n\r\n  /** @param collateralRate Sets the \"exchange rate\" for declaring addresses lost */\r\n\r\n    uint256 collateralRate = 10**18 wei;\r\n    event CollateralRateChanged();\r\n\r\n    function setCollateralRate(uint256 _collateralRate) public onlyOwner() returns (bool){\r\n        collateralRate = _collateralRate;\r\n        emit CollateralRateChanged();\r\n    }\r\n\r\n  /** This contract is pausible.  */\r\n    bool public isPaused = false;\r\n\r\n  /** @dev In case the contract is paused, the pauseMessage can be used to give information. */\r\n    string public pauseMessage = \"Contract is active\";\r\n\r\n  /** @dev Give URL where the legal documents supporting the token can be found.\r\n      Does this need to be hashed??? */\r\n    string public TermsAndConditions = \"www.alethena.com\";\r\n\r\n    function setTC(string _TermsAndConditions) public onlyOwner() returns (bool){\r\n        TermsAndConditions = _TermsAndConditions;\r\n        emit TCChanged();\r\n    }\r\n\r\n   \r\n  /** @dev Function to set pause.  */\r\n    function pause(string _inputMessage) public onlyOwner() returns (bool) {\r\n        isPaused = true;\r\n        pauseMessage = _inputMessage;\r\n        emit Pause();\r\n        return true;\r\n    }\r\n\r\n/** \r\n* @dev Function to unpause.  \r\n*/\r\n    function unpause() public onlyOwner() returns (bool) {\r\n        isPaused = false;\r\n        pauseMessage = \"Contract is active\";\r\n        emit Unpause();\r\n        return true;\r\n    }\r\n\r\n    event Pause();\r\n    event Unpause();\r\n    event TCChanged();\r\n\r\n//////////////////////////////////////////////////////////////////////////////////////////////////////////////\r\n/** \r\nThe next section contains standard ERC20 routines.\r\nMain change: Transfer functions have an additional post function which resolves claims if applicable.\r\n */\r\n//////////////////////////////////////////////////////////////////////////////////////////////////////////////\r\n\r\n  /**\r\n  * @dev Transfer token for a specified address\r\n  * @param _to The address to transfer to.\r\n  * @param _value The amount to be transferred.\r\n  */\r\n    function transfer(address _to, uint256 _value) public returns (bool) {\r\n        require(!isPaused);\r\n        require(_to != address(0));\r\n        require(_value <= balances[msg.sender]);\r\n        balances[msg.sender] = balances[msg.sender].sub(_value);\r\n        balances[_to] = balances[_to].add(_value);\r\n        resolveClaim(msg.sender);\r\n        emit Transfer(msg.sender, _to, _value);\r\n        return true;\r\n    }\r\n\r\n  /**\r\n  * @dev Gets the balance of the specified address.\r\n  * @param _owner The address to query the the balance of.\r\n  * @return An uint256 representing the amount owned by the passed address.\r\n  */\r\n    function balanceOf(address _owner) public view returns (uint256) {\r\n        return balances[_owner];\r\n    }\r\n\r\n\r\n    mapping (address => mapping (address => uint256)) internal allowed;\r\n\r\n\r\n  /**\r\n   * @dev Transfer tokens from one address to another\r\n   * @param _from address The address which you want to send tokens from\r\n   * @param _to address The address which you want to transfer to\r\n   * @param _value uint256 the amount of tokens to be transferred\r\n   */\r\n    function transferFrom(\r\n        address _from,\r\n        address _to,\r\n        uint256 _value\r\n    )\r\n        public\r\n        returns (bool)\r\n    {\r\n        require(!isPaused);\r\n        require(_to != address(0));\r\n        require(_value <= balances[_from]);\r\n        require(_value <= allowed[_from][msg.sender]);\r\n\r\n        balances[_from] = balances[_from].sub(_value);\r\n        balances[_to] = balances[_to].add(_value);\r\n        allowed[_from][msg.sender] = allowed[_from][msg.sender].sub(_value);\r\n        resolveClaim(msg.sender);\r\n        emit Transfer(_from, _to, _value);\r\n        return true;\r\n    }\r\n\r\n  /**\r\n   * @dev Approve the passed address to spend the specified amount of tokens on behalf of msg.sender.\r\n   * Beware that changing an allowance with this method brings the risk that someone may use both the old\r\n   * and the new allowance by unfortunate transaction ordering. One possible solution to mitigate this\r\n   * race condition is to first reduce the spender's allowance to 0 and set the desired value afterwards:\r\n   * https://github.com/ethereum/EIPs/issues/20#issuecomment-263524729\r\n   * @param _spender The address which will spend the funds.\r\n   * @param _value The amount of tokens to be spent.\r\n   */\r\n    function approve(address _spender, uint256 _value) public returns (bool) {\r\n        require(!isPaused);\r\n        allowed[msg.sender][_spender] = _value;\r\n        emit Approval(msg.sender, _spender, _value);\r\n        return true;\r\n    }\r\n\r\n  /**\r\n   * @dev Function to check the amount of tokens that an owner allowed to a spender.\r\n   * @param _owner address The address which owns the funds.\r\n   * @param _spender address The address which will spend the funds.\r\n   * @return A uint256 specifying the amount of tokens still available for the spender.\r\n   */\r\n    function allowance(\r\n        address _owner,\r\n        address _spender\r\n    )\r\n    public\r\n    view\r\n    returns (uint256)\r\n  {\r\n        return allowed[_owner][_spender];\r\n    }\r\n\r\n  /**\r\n   * @dev Increase the amount of tokens that an owner allowed to a spender.\r\n   * approve should be called when allowed[_spender] == 0. To increment\r\n   * allowed value is better to use this function to avoid 2 calls (and wait until\r\n   * the first transaction is mined)\r\n   * From MonolithDAO Token.sol\r\n   * @param _spender The address which will spend the funds.\r\n   * @param _addedValue The amount of tokens to increase the allowance by.\r\n   */\r\n    function increaseApproval(\r\n        address _spender,\r\n        uint256 _addedValue\r\n    )\r\n        public\r\n        returns (bool)\r\n    {\r\n        require(!isPaused);\r\n        allowed[msg.sender][_spender] = (\r\n        allowed[msg.sender][_spender].add(_addedValue));\r\n        emit Approval(msg.sender, _spender, allowed[msg.sender][_spender]);\r\n        return true;\r\n    }\r\n\r\n  /**\r\n   * @dev Decrease the amount of tokens that an owner allowed to a spender.\r\n   * approve should be called when allowed[_spender] == 0. To decrement\r\n   * allowed value is better to use this function to avoid 2 calls (and wait until\r\n   * the first transaction is mined)\r\n   * From MonolithDAO Token.sol\r\n   * @param _spender The address which will spend the funds.\r\n   * @param _subtractedValue The amount of tokens to decrease the allowance by.\r\n   */\r\n    function decreaseApproval(\r\n        address _spender,\r\n        uint256 _subtractedValue\r\n    )\r\n        public\r\n        returns (bool)\r\n    {\r\n        require(!isPaused);\r\n        uint256 oldValue = allowed[msg.sender][_spender];\r\n        if (_subtractedValue > oldValue) {\r\n            allowed[msg.sender][_spender] = 0;\r\n        } else {\r\n            allowed[msg.sender][_spender] = oldValue.sub(_subtractedValue);\r\n        }\r\n        emit Approval(msg.sender, _spender, allowed[msg.sender][_spender]);\r\n        return true;\r\n    }\r\n  \r\n//////////////////////////////////////////////////////////////////////////////////////////////////////////////\r\n//////////////////////////////////////////////////////////////////////////////////////////////////////////////\r\n \r\n    event Mint(address _receiver,uint256 _amount);\r\n\r\n  /** \r\n   *  This is the minting function used to distribute the tokens initially\r\n   *  Once the minting is done, any future minting can be prevented by irrevocably setting \r\n   *  the mintable variable to \"false\".\r\n   *  @notice We will need an additional minting function which should be callable from the \"Aktienautomat\" only.\r\n   */\r\n    function mint(address[] _receivers, uint256[] _amounts) \r\n    public \r\n    onlyOwner() \r\n    returns (bool){\r\n        require(!isPaused);\r\n        require(mintable);\r\n        require(_receivers.length == _amounts.length);\r\n\r\n        for (uint256 i = 0; i < _receivers.length; i++){\r\n            totalSupply_ = totalSupply_.add(_amounts[i]);\r\n            require(totalSupply_ <= maxSupply_);\r\n            balances[_receivers[i]] = balances[_receivers[i]].add(_amounts[i]);\r\n            emit Mint(_receivers[i], _amounts[i]);\r\n        }\r\n        return true;\r\n    }\r\n  \r\n     \r\n  /** @dev First address is for the address that is being claimed.\r\n    * @dev Second address is the  user who makes the claim \r\n    * @dev The uint stores the locking period for a specific address pair \r\n    */\r\n\r\n    mapping(address => mapping(address => uint256)) public claims; \r\n    mapping(address => address[]) public indices;\r\n\r\n    // This stores the total collateral for a certain target address\r\n    mapping(address => uint256) collaterals;\r\n\r\n    event ClaimMade(address indexed _lostAddress, address indexed _claimer, uint256 _lockTime);\r\n    event ClaimDeleted(address indexed _lostAddress, address indexed _claimer);\r\n\r\n  /** \r\n    * @dev Getters for claims. Since keys cannot be deleted, they will be shown by showAllClaims() even if the claim was deleted.\r\n    * @dev To check specific claim use showClaim()\r\n    */\r\n\r\n    function showClaim(address _claimedAddress, address _claimerAddress) public view returns (uint256){\r\n        return claims[_claimedAddress][_claimerAddress];\r\n    }\r\n\r\n    function showAllClaims(address _claimedAddress) public view returns (address[]){\r\n        return indices[_claimedAddress];\r\n    }\r\n\r\n    function showCollaterals(address _claimedAddress) public view returns (uint256){\r\n        return collaterals[_claimedAddress];\r\n    }\r\n\r\n   \r\n  \r\n  /** @dev Anyone can declare that the private key to a certain address was lost by \r\n    * @dev calling declareLost and passing the address in question. To prevent random requests\r\n    * @dev a high collateral needs to be posted.\r\n    * @dev Using block timestamps is ok as we will replace 1 minute by something like 1 year.\r\n    */\r\n    function declareLost (address _lostAddress) public payable returns (bool){\r\n        require(!isPaused);\r\n        require(msg.value == balances[_lostAddress]*collateralRate);\r\n        claims[_lostAddress][msg.sender] = block.timestamp + 1 minutes;\r\n        indices[_lostAddress].push(msg.sender);\r\n        collaterals[_lostAddress] = collaterals[_lostAddress].add(msg.value);\r\n        emit ClaimMade(_lostAddress, msg.sender, claims[_lostAddress][msg.sender]);\r\n    }\r\n    \r\n   /** \r\n    * @dev This function is used to resolve a claim.\r\n    * @dev A rightful owner can claim his address back.\r\n    * @dev Else, after waiting period address can be claimed.\r\n    * \r\n   */\r\n    function resolveClaim(address _addressToBeResolved) public returns (bool){\r\n        require(!isPaused);\r\n        if (msg.sender == _addressToBeResolved){\r\n            //pay out collateral\r\n            msg.sender.transfer(collaterals[_addressToBeResolved]);\r\n            //DELETE ALL CLAIMS FIR THIS ADDRESS\r\n            deleteAllClaims(_addressToBeResolved);\r\n            return true;\r\n        }\r\n\r\n        else{\r\n            // Check the sender actually has a claim\r\n            require(claims[_addressToBeResolved][msg.sender] != 0);\r\n\r\n            // Check that locking period fpr the sender is over\r\n            require(claims[_addressToBeResolved][msg.sender] < block.timestamp);\r\n\r\n           //pay claimer\r\n            msg.sender.transfer(collaterals[_addressToBeResolved]);\r\n            \r\n           //...and give him the tokens         \r\n            balances[msg.sender] = balances[msg.sender].add(balances[_addressToBeResolved]);\r\n            balances[_addressToBeResolved] = 0;\r\n            emit Transfer(_addressToBeResolved, msg.sender, balances[_addressToBeResolved]);\r\n        \r\n          //DELETE ALL CLAIMS FOR THIS ADDRESS\r\n            deleteAllClaims(_addressToBeResolved);\r\n            return true;\r\n        }\r\n        return false;\r\n    }\r\n\r\n\r\n     /** @dev This function is to be executed by the owener only in case a legal dispute needs to be settled */\r\n     \r\n    function deleteClaim(address _lostAddress, address _claimerAddress) public onlyOwner() returns (bool){\r\n        claims[_lostAddress][_claimerAddress] = 0;\r\n        emit ClaimDeleted(_lostAddress, _claimerAddress);\r\n        return true;\r\n    }\r\n\r\n      /** @dev This function is used to remove all claims on an address after claims have been resolved. */\r\n\r\n    function deleteAllClaims(address _lostAddress) private returns (bool){\r\n\r\n        uint arrayLength = indices[_lostAddress].length;\r\n        for (uint i = 0; i < arrayLength; i++){\r\n            claims[_lostAddress][indices[_lostAddress][i]] = 0;\r\n            emit ClaimDeleted(_lostAddress, indices[_lostAddress][i]);\r\n        }\r\n        collaterals[_lostAddress] = 0;\r\n\r\n        return true;\r\n    }\r\n\r\n}",
  "sourcePath": "C:\\Users\\Luzius\\Documents\\Instruction-Token\\InstructionToken\\contracts\\InstructionToken.sol",
  "compiler": {
    "name": "solc",
    "version": "0.4.24+commit.e67f0147.Emscripten.clang"
  },
  "schemaVersion": "2.0.1",
  "updatedAt": "2018-08-02T12:53:32.031Z"
}