{
  "contractName": "InstructionToken",
  "abi": [
    {
      "constant": true,
      "inputs": [
        {
          "name": "",
          "type": "address"
        },
        {
          "name": "",
          "type": "address"
        }
      ],
      "name": "claims",
      "outputs": [
        {
          "name": "",
          "type": "uint256"
        }
      ],
      "payable": false,
      "stateMutability": "view",
      "type": "function"
    },
    {
      "constant": true,
      "inputs": [],
      "name": "mintable",
      "outputs": [
        {
          "name": "",
          "type": "bool"
        }
      ],
      "payable": false,
      "stateMutability": "view",
      "type": "function"
    },
    {
      "constant": true,
      "inputs": [],
      "name": "pauseMessage",
      "outputs": [
        {
          "name": "",
          "type": "bytes32"
        }
      ],
      "payable": false,
      "stateMutability": "view",
      "type": "function"
    },
    {
      "constant": false,
      "inputs": [],
      "name": "renounceOwnership",
      "outputs": [],
      "payable": false,
      "stateMutability": "nonpayable",
      "type": "function"
    },
    {
      "constant": true,
      "inputs": [],
      "name": "owner",
      "outputs": [
        {
          "name": "",
          "type": "address"
        }
      ],
      "payable": false,
      "stateMutability": "view",
      "type": "function"
    },
    {
      "constant": true,
      "inputs": [],
      "name": "isPaused",
      "outputs": [
        {
          "name": "",
          "type": "bool"
        }
      ],
      "payable": false,
      "stateMutability": "view",
      "type": "function"
    },
    {
      "constant": false,
      "inputs": [
        {
          "name": "_newOwner",
          "type": "address"
        }
      ],
      "name": "transferOwnership",
      "outputs": [],
      "payable": false,
      "stateMutability": "nonpayable",
      "type": "function"
    },
    {
      "constant": true,
      "inputs": [
        {
          "name": "",
          "type": "address"
        },
        {
          "name": "",
          "type": "uint256"
        }
      ],
      "name": "indices",
      "outputs": [
        {
          "name": "",
          "type": "address"
        }
      ],
      "payable": false,
      "stateMutability": "view",
      "type": "function"
    },
    {
      "anonymous": false,
      "inputs": [],
      "name": "mintingDone",
      "type": "event"
    },
    {
      "anonymous": false,
      "inputs": [],
      "name": "CollateralRateChanged",
      "type": "event"
    },
    {
      "anonymous": false,
      "inputs": [],
      "name": "Pause",
      "type": "event"
    },
    {
      "anonymous": false,
      "inputs": [],
      "name": "Unpause",
      "type": "event"
    },
    {
      "anonymous": false,
      "inputs": [
        {
          "indexed": false,
          "name": "_receiver",
          "type": "address"
        },
        {
          "indexed": false,
          "name": "_amount",
          "type": "uint256"
        }
      ],
      "name": "Mint",
      "type": "event"
    },
    {
      "anonymous": false,
      "inputs": [
        {
          "indexed": true,
          "name": "_lostAddress",
          "type": "address"
        },
        {
          "indexed": true,
          "name": "_claimer",
          "type": "address"
        },
        {
          "indexed": false,
          "name": "_lockTime",
          "type": "uint256"
        }
      ],
      "name": "ClaimMade",
      "type": "event"
    },
    {
      "anonymous": false,
      "inputs": [
        {
          "indexed": true,
          "name": "_lostAddress",
          "type": "address"
        },
        {
          "indexed": true,
          "name": "_claimer",
          "type": "address"
        }
      ],
      "name": "ClaimDeleted",
      "type": "event"
    },
    {
      "anonymous": false,
      "inputs": [
        {
          "indexed": true,
          "name": "previousOwner",
          "type": "address"
        }
      ],
      "name": "OwnershipRenounced",
      "type": "event"
    },
    {
      "anonymous": false,
      "inputs": [
        {
          "indexed": true,
          "name": "previousOwner",
          "type": "address"
        },
        {
          "indexed": true,
          "name": "newOwner",
          "type": "address"
        }
      ],
      "name": "OwnershipTransferred",
      "type": "event"
    },
    {
      "anonymous": false,
      "inputs": [
        {
          "indexed": true,
          "name": "owner",
          "type": "address"
        },
        {
          "indexed": true,
          "name": "spender",
          "type": "address"
        },
        {
          "indexed": false,
          "name": "value",
          "type": "uint256"
        }
      ],
      "name": "Approval",
      "type": "event"
    },
    {
      "anonymous": false,
      "inputs": [
        {
          "indexed": true,
          "name": "from",
          "type": "address"
        },
        {
          "indexed": true,
          "name": "to",
          "type": "address"
        },
        {
          "indexed": false,
          "name": "value",
          "type": "uint256"
        }
      ],
      "name": "Transfer",
      "type": "event"
    },
    {
      "constant": true,
      "inputs": [],
      "name": "totalSupply",
      "outputs": [
        {
          "name": "",
          "type": "uint256"
        }
      ],
      "payable": false,
      "stateMutability": "view",
      "type": "function"
    },
    {
      "constant": false,
      "inputs": [],
      "name": "endMinting",
      "outputs": [
        {
          "name": "",
          "type": "bool"
        }
      ],
      "payable": false,
      "stateMutability": "nonpayable",
      "type": "function"
    },
    {
      "constant": false,
      "inputs": [
        {
          "name": "_collateralRate",
          "type": "uint256"
        }
      ],
      "name": "setCollateralRate",
      "outputs": [
        {
          "name": "",
          "type": "bool"
        }
      ],
      "payable": false,
      "stateMutability": "nonpayable",
      "type": "function"
    },
    {
      "constant": false,
      "inputs": [
        {
          "name": "_inputMessage",
          "type": "bytes32"
        }
      ],
      "name": "pause",
      "outputs": [
        {
          "name": "",
          "type": "bool"
        }
      ],
      "payable": false,
      "stateMutability": "nonpayable",
      "type": "function"
    },
    {
      "constant": false,
      "inputs": [],
      "name": "unpause",
      "outputs": [
        {
          "name": "",
          "type": "bool"
        }
      ],
      "payable": false,
      "stateMutability": "nonpayable",
      "type": "function"
    },
    {
      "constant": false,
      "inputs": [
        {
          "name": "_to",
          "type": "address"
        },
        {
          "name": "_value",
          "type": "uint256"
        }
      ],
      "name": "transfer",
      "outputs": [
        {
          "name": "",
          "type": "bool"
        }
      ],
      "payable": false,
      "stateMutability": "nonpayable",
      "type": "function"
    },
    {
      "constant": true,
      "inputs": [
        {
          "name": "_owner",
          "type": "address"
        }
      ],
      "name": "balanceOf",
      "outputs": [
        {
          "name": "",
          "type": "uint256"
        }
      ],
      "payable": false,
      "stateMutability": "view",
      "type": "function"
    },
    {
      "constant": false,
      "inputs": [
        {
          "name": "_from",
          "type": "address"
        },
        {
          "name": "_to",
          "type": "address"
        },
        {
          "name": "_value",
          "type": "uint256"
        }
      ],
      "name": "transferFrom",
      "outputs": [
        {
          "name": "",
          "type": "bool"
        }
      ],
      "payable": false,
      "stateMutability": "nonpayable",
      "type": "function"
    },
    {
      "constant": false,
      "inputs": [
        {
          "name": "_spender",
          "type": "address"
        },
        {
          "name": "_value",
          "type": "uint256"
        }
      ],
      "name": "approve",
      "outputs": [
        {
          "name": "",
          "type": "bool"
        }
      ],
      "payable": false,
      "stateMutability": "nonpayable",
      "type": "function"
    },
    {
      "constant": true,
      "inputs": [
        {
          "name": "_owner",
          "type": "address"
        },
        {
          "name": "_spender",
          "type": "address"
        }
      ],
      "name": "allowance",
      "outputs": [
        {
          "name": "",
          "type": "uint256"
        }
      ],
      "payable": false,
      "stateMutability": "view",
      "type": "function"
    },
    {
      "constant": false,
      "inputs": [
        {
          "name": "_spender",
          "type": "address"
        },
        {
          "name": "_addedValue",
          "type": "uint256"
        }
      ],
      "name": "increaseApproval",
      "outputs": [
        {
          "name": "",
          "type": "bool"
        }
      ],
      "payable": false,
      "stateMutability": "nonpayable",
      "type": "function"
    },
    {
      "constant": false,
      "inputs": [
        {
          "name": "_spender",
          "type": "address"
        },
        {
          "name": "_subtractedValue",
          "type": "uint256"
        }
      ],
      "name": "decreaseApproval",
      "outputs": [
        {
          "name": "",
          "type": "bool"
        }
      ],
      "payable": false,
      "stateMutability": "nonpayable",
      "type": "function"
    },
    {
      "constant": false,
      "inputs": [
        {
          "name": "_receivers",
          "type": "address[]"
        },
        {
          "name": "_amounts",
          "type": "uint256[]"
        }
      ],
      "name": "mint",
      "outputs": [
        {
          "name": "",
          "type": "bool"
        }
      ],
      "payable": false,
      "stateMutability": "nonpayable",
      "type": "function"
    },
    {
      "constant": true,
      "inputs": [
        {
          "name": "_claimedAddress",
          "type": "address"
        },
        {
          "name": "_claimerAddress",
          "type": "address"
        }
      ],
      "name": "showClaim",
      "outputs": [
        {
          "name": "",
          "type": "uint256"
        }
      ],
      "payable": false,
      "stateMutability": "view",
      "type": "function"
    },
    {
      "constant": true,
      "inputs": [
        {
          "name": "_claimedAddress",
          "type": "address"
        }
      ],
      "name": "showAllClaims",
      "outputs": [
        {
          "name": "",
          "type": "address[]"
        }
      ],
      "payable": false,
      "stateMutability": "view",
      "type": "function"
    },
    {
      "constant": true,
      "inputs": [
        {
          "name": "_claimedAddress",
          "type": "address"
        }
      ],
      "name": "showCollaterals",
      "outputs": [
        {
          "name": "",
          "type": "uint256"
        }
      ],
      "payable": false,
      "stateMutability": "view",
      "type": "function"
    },
    {
      "constant": false,
      "inputs": [
        {
          "name": "_lostAddress",
          "type": "address"
        }
      ],
      "name": "declareLost",
      "outputs": [
        {
          "name": "",
          "type": "bool"
        }
      ],
      "payable": true,
      "stateMutability": "payable",
      "type": "function"
    },
    {
      "constant": false,
      "inputs": [
        {
          "name": "_addressToBeResolved",
          "type": "address"
        }
      ],
      "name": "resolveClaim",
      "outputs": [
        {
          "name": "",
          "type": "bool"
        }
      ],
      "payable": false,
      "stateMutability": "nonpayable",
      "type": "function"
    },
    {
      "constant": false,
      "inputs": [
        {
          "name": "_lostAddress",
          "type": "address"
        },
        {
          "name": "_claimerAddress",
          "type": "address"
        }
      ],
      "name": "deleteClaim",
      "outputs": [
        {
          "name": "",
          "type": "bool"
        }
      ],
      "payable": false,
      "stateMutability": "nonpayable",
      "type": "function"
    }
  ],
  "bytecode": "0x60806040526001600360006101000a81548160ff021916908315150217905550670de0b6b3a76400006004556000600560006101000a81548160ff0219169083151502179055507f436f6e7472616374206973206163746976650000000000000000000000000000600690600019169055336000806101000a81548173ffffffffffffffffffffffffffffffffffffffff021916908373ffffffffffffffffffffffffffffffffffffffff160217905550612d57806100bf6000396000f30060806040526004361061015f576000357c0100000000000000000000000000000000000000000000000000000000900463ffffffff168063095ea7b31461016457806318160ddd146101c957806323b872dd146101f45780633f4ba83a146102795780633f733c6b146102a85780634b6b8a641461031f5780634bf365df1461036d5780634cb3d0e21461039c578063624b5ed4146103cf578063661884631461041457806367f27ba8146104795780636bd6d4191461051157806370a0823114610568578063715018a6146105bf5780638da5cb5b146105d657806394d645a81461062d578063a9059cbb14610688578063b187bd26146106ed578063c9b804181461071c578063d73dd62314610793578063dd62ed3e146107f8578063e26b917e1461086f578063e467f7e0146108ea578063ed56531a146109ab578063ef70aebf146109f4578063f2fde38b14610a23578063f99b2b0114610a66575b600080fd5b34801561017057600080fd5b506101af600480360381019080803573ffffffffffffffffffffffffffffffffffffffff16906020019092919080359060200190929190505050610af3565b604051808215151515815260200191505060405180910390f35b3480156101d557600080fd5b506101de610c01565b6040518082815260200191505060405180910390f35b34801561020057600080fd5b5061025f600480360381019080803573ffffffffffffffffffffffffffffffffffffffff169060200190929190803573ffffffffffffffffffffffffffffffffffffffff16906020019092919080359060200190929190505050610c0b565b604051808215151515815260200191505060405180910390f35b34801561028557600080fd5b5061028e610ff1565b604051808215151515815260200191505060405180910390f35b3480156102b457600080fd5b50610309600480360381019080803573ffffffffffffffffffffffffffffffffffffffff169060200190929190803573ffffffffffffffffffffffffffffffffffffffff1690602001909291905050506110c7565b6040518082815260200191505060405180910390f35b610353600480360381019080803573ffffffffffffffffffffffffffffffffffffffff1690602001909291905050506110ec565b604051808215151515815260200191505060405180910390f35b34801561037957600080fd5b506103826113fd565b604051808215151515815260200191505060405180910390f35b3480156103a857600080fd5b506103b1611410565b60405180826000191660001916815260200191505060405180910390f35b3480156103db57600080fd5b506103fa60048036038101908080359060200190929190505050611416565b604051808215151515815260200191505060405180910390f35b34801561042057600080fd5b5061045f600480360381019080803573ffffffffffffffffffffffffffffffffffffffff169060200190929190803590602001909291905050506114ab565b604051808215151515815260200191505060405180910390f35b34801561048557600080fd5b506104ba600480360381019080803573ffffffffffffffffffffffffffffffffffffffff169060200190929190505050611758565b6040518080602001828103825283818151815260200191508051906020019060200280838360005b838110156104fd5780820151818401526020810190506104e2565b505050509050019250505060405180910390f35b34801561051d57600080fd5b50610552600480360381019080803573ffffffffffffffffffffffffffffffffffffffff169060200190929190505050611825565b6040518082815260200191505060405180910390f35b34801561057457600080fd5b506105a9600480360381019080803573ffffffffffffffffffffffffffffffffffffffff16906020019092919050505061186e565b6040518082815260200191505060405180910390f35b3480156105cb57600080fd5b506105d46118b7565b005b3480156105e257600080fd5b506105eb6119b9565b604051808273ffffffffffffffffffffffffffffffffffffffff1673ffffffffffffffffffffffffffffffffffffffff16815260200191505060405180910390f35b34801561063957600080fd5b5061066e600480360381019080803573ffffffffffffffffffffffffffffffffffffffff1690602001909291905050506119de565b604051808215151515815260200191505060405180910390f35b34801561069457600080fd5b506106d3600480360381019080803573ffffffffffffffffffffffffffffffffffffffff16906020019092919080359060200190929190505050611e36565b604051808215151515815260200191505060405180910390f35b3480156106f957600080fd5b50610702612081565b604051808215151515815260200191505060405180910390f35b34801561072857600080fd5b5061077d600480360381019080803573ffffffffffffffffffffffffffffffffffffffff169060200190929190803573ffffffffffffffffffffffffffffffffffffffff169060200190929190505050612094565b6040518082815260200191505060405180910390f35b34801561079f57600080fd5b506107de600480360381019080803573ffffffffffffffffffffffffffffffffffffffff1690602001909291908035906020019092919050505061211b565b604051808215151515815260200191505060405180910390f35b34801561080457600080fd5b50610859600480360381019080803573ffffffffffffffffffffffffffffffffffffffff169060200190929190803573ffffffffffffffffffffffffffffffffffffffff169060200190929190505050612333565b6040518082815260200191505060405180910390f35b34801561087b57600080fd5b506108d0600480360381019080803573ffffffffffffffffffffffffffffffffffffffff169060200190929190803573ffffffffffffffffffffffffffffffffffffffff1690602001909291905050506123ba565b604051808215151515815260200191505060405180910390f35b3480156108f657600080fd5b5061099160048036038101908080359060200190820180359060200190808060200260200160405190810160405280939291908181526020018383602002808284378201915050505050509192919290803590602001908201803590602001908080602002602001604051908101604052809392919081815260200183836020028082843782019150505050505091929192905050506124fd565b604051808215151515815260200191505060405180910390f35b3480156109b757600080fd5b506109da600480360381019080803560001916906020019092919050505061276d565b604051808215151515815260200191505060405180910390f35b348015610a0057600080fd5b50610a09612825565b604051808215151515815260200191505060405180910390f35b348015610a2f57600080fd5b50610a64600480360381019080803573ffffffffffffffffffffffffffffffffffffffff1690602001909291905050506128cc565b005b348015610a7257600080fd5b50610ab1600480360381019080803573ffffffffffffffffffffffffffffffffffffffff16906020019092919080359060200190929190505050612933565b604051808273ffffffffffffffffffffffffffffffffffffffff1673ffffffffffffffffffffffffffffffffffffffff16815260200191505060405180910390f35b6000600560009054906101000a900460ff16151515610b1157600080fd5b81600760003373ffffffffffffffffffffffffffffffffffffffff1673ffffffffffffffffffffffffffffffffffffffff16815260200190815260200160002060008573ffffffffffffffffffffffffffffffffffffffff1673ffffffffffffffffffffffffffffffffffffffff168152602001908152602001600020819055508273ffffffffffffffffffffffffffffffffffffffff163373ffffffffffffffffffffffffffffffffffffffff167f8c5be1e5ebec7d5bd14f71427d1e84f3dd0314c0f7b2291e5b200ac8c7c3b925846040518082815260200191505060405180910390a36001905092915050565b6000600254905090565b6000600560009054906101000a900460ff16151515610c2957600080fd5b600073ffffffffffffffffffffffffffffffffffffffff168373ffffffffffffffffffffffffffffffffffffffff1614151515610c6557600080fd5b600160008573ffffffffffffffffffffffffffffffffffffffff1673ffffffffffffffffffffffffffffffffffffffff168152602001908152602001600020548211151515610cb357600080fd5b600760008573ffffffffffffffffffffffffffffffffffffffff1673ffffffffffffffffffffffffffffffffffffffff16815260200190815260200160002060003373ffffffffffffffffffffffffffffffffffffffff1673ffffffffffffffffffffffffffffffffffffffff168152602001908152602001600020548211151515610d3e57600080fd5b610d9082600160008773ffffffffffffffffffffffffffffffffffffffff1673ffffffffffffffffffffffffffffffffffffffff1681526020019081526020016000205461298090919063ffffffff16565b600160008673ffffffffffffffffffffffffffffffffffffffff1673ffffffffffffffffffffffffffffffffffffffff16815260200190815260200160002081905550610e2582600160008673ffffffffffffffffffffffffffffffffffffffff1673ffffffffffffffffffffffffffffffffffffffff1681526020019081526020016000205461299990919063ffffffff16565b600160008573ffffffffffffffffffffffffffffffffffffffff1673ffffffffffffffffffffffffffffffffffffffff16815260200190815260200160002081905550610ef782600760008773ffffffffffffffffffffffffffffffffffffffff1673ffffffffffffffffffffffffffffffffffffffff16815260200190815260200160002060003373ffffffffffffffffffffffffffffffffffffffff1673ffffffffffffffffffffffffffffffffffffffff1681526020019081526020016000205461298090919063ffffffff16565b600760008673ffffffffffffffffffffffffffffffffffffffff1673ffffffffffffffffffffffffffffffffffffffff16815260200190815260200160002060003373ffffffffffffffffffffffffffffffffffffffff1673ffffffffffffffffffffffffffffffffffffffff16815260200190815260200160002081905550610f80336119de565b508273ffffffffffffffffffffffffffffffffffffffff168473ffffffffffffffffffffffffffffffffffffffff167fddf252ad1be2c89b69c2b068fc378daa952ba7f163c4a11628f55a4df523b3ef846040518082815260200191505060405180910390a3600190509392505050565b60008060009054906101000a900473ffffffffffffffffffffffffffffffffffffffff1673ffffffffffffffffffffffffffffffffffffffff163373ffffffffffffffffffffffffffffffffffffffff1614151561104e57600080fd5b6000600560006101000a81548160ff0219169083151502179055507f436f6e7472616374206973206163746976650000000000000000000000000000600681600019169055507f7805862f689e2f13df9f062ff482ad3ad112aca9e0847911ed832e158c525b3360405160405180910390a16001905090565b6008602052816000526040600020602052806000526040600020600091509150505481565b6000600560009054906101000a900460ff1615151561110a57600080fd5b600454600160008473ffffffffffffffffffffffffffffffffffffffff1673ffffffffffffffffffffffffffffffffffffffff16815260200190815260200160002054023414151561115b57600080fd5b603c4201600860008473ffffffffffffffffffffffffffffffffffffffff1673ffffffffffffffffffffffffffffffffffffffff16815260200190815260200160002060003373ffffffffffffffffffffffffffffffffffffffff1673ffffffffffffffffffffffffffffffffffffffff16815260200190815260200160002081905550600960008373ffffffffffffffffffffffffffffffffffffffff1673ffffffffffffffffffffffffffffffffffffffff1681526020019081526020016000203390806001815401808255809150509060018203906000526020600020016000909192909190916101000a81548173ffffffffffffffffffffffffffffffffffffffff021916908373ffffffffffffffffffffffffffffffffffffffff160217905550506112d434600a60008573ffffffffffffffffffffffffffffffffffffffff1673ffffffffffffffffffffffffffffffffffffffff1681526020019081526020016000205461299990919063ffffffff16565b600a60008473ffffffffffffffffffffffffffffffffffffffff1673ffffffffffffffffffffffffffffffffffffffff168152602001908152602001600020819055503373ffffffffffffffffffffffffffffffffffffffff168273ffffffffffffffffffffffffffffffffffffffff167f1982ca8958fc8a8176cb52be509260f4bc5af7ce04e1533711793f1c56dd5359600860008673ffffffffffffffffffffffffffffffffffffffff1673ffffffffffffffffffffffffffffffffffffffff16815260200190815260200160002060003373ffffffffffffffffffffffffffffffffffffffff1673ffffffffffffffffffffffffffffffffffffffff168152602001908152602001600020546040518082815260200191505060405180910390a3919050565b600360009054906101000a900460ff1681565b60065481565b60008060009054906101000a900473ffffffffffffffffffffffffffffffffffffffff1673ffffffffffffffffffffffffffffffffffffffff163373ffffffffffffffffffffffffffffffffffffffff1614151561147357600080fd5b816004819055507f4d0929ed394f8d01f657c69a385c8e0141ab783140ec7d456c80b969d83132df60405160405180910390a1919050565b600080600560009054906101000a900460ff161515156114ca57600080fd5b600760003373ffffffffffffffffffffffffffffffffffffffff1673ffffffffffffffffffffffffffffffffffffffff16815260200190815260200160002060008573ffffffffffffffffffffffffffffffffffffffff1673ffffffffffffffffffffffffffffffffffffffff168152602001908152602001600020549050808311156115d8576000600760003373ffffffffffffffffffffffffffffffffffffffff1673ffffffffffffffffffffffffffffffffffffffff16815260200190815260200160002060008673ffffffffffffffffffffffffffffffffffffffff1673ffffffffffffffffffffffffffffffffffffffff1681526020019081526020016000208190555061166c565b6115eb838261298090919063ffffffff16565b600760003373ffffffffffffffffffffffffffffffffffffffff1673ffffffffffffffffffffffffffffffffffffffff16815260200190815260200160002060008673ffffffffffffffffffffffffffffffffffffffff1673ffffffffffffffffffffffffffffffffffffffff168152602001908152602001600020819055505b8373ffffffffffffffffffffffffffffffffffffffff163373ffffffffffffffffffffffffffffffffffffffff167f8c5be1e5ebec7d5bd14f71427d1e84f3dd0314c0f7b2291e5b200ac8c7c3b925600760003373ffffffffffffffffffffffffffffffffffffffff1673ffffffffffffffffffffffffffffffffffffffff16815260200190815260200160002060008873ffffffffffffffffffffffffffffffffffffffff1673ffffffffffffffffffffffffffffffffffffffff168152602001908152602001600020546040518082815260200191505060405180910390a3600191505092915050565b6060600960008373ffffffffffffffffffffffffffffffffffffffff1673ffffffffffffffffffffffffffffffffffffffff16815260200190815260200160002080548060200260200160405190810160405280929190818152602001828054801561181957602002820191906000526020600020905b8160009054906101000a900473ffffffffffffffffffffffffffffffffffffffff1673ffffffffffffffffffffffffffffffffffffffff16815260200190600101908083116117cf575b50505050509050919050565b6000600a60008373ffffffffffffffffffffffffffffffffffffffff1673ffffffffffffffffffffffffffffffffffffffff168152602001908152602001600020549050919050565b6000600160008373ffffffffffffffffffffffffffffffffffffffff1673ffffffffffffffffffffffffffffffffffffffff168152602001908152602001600020549050919050565b6000809054906101000a900473ffffffffffffffffffffffffffffffffffffffff1673ffffffffffffffffffffffffffffffffffffffff163373ffffffffffffffffffffffffffffffffffffffff1614151561191257600080fd5b6000809054906101000a900473ffffffffffffffffffffffffffffffffffffffff1673ffffffffffffffffffffffffffffffffffffffff167ff8df31144d9c2f0f6b59d69b8b98abd5459d07f2742c4df920b25aae33c6482060405160405180910390a260008060006101000a81548173ffffffffffffffffffffffffffffffffffffffff021916908373ffffffffffffffffffffffffffffffffffffffff160217905550565b6000809054906101000a900473ffffffffffffffffffffffffffffffffffffffff1681565b6000600560009054906101000a900460ff161515156119fc57600080fd5b8173ffffffffffffffffffffffffffffffffffffffff163373ffffffffffffffffffffffffffffffffffffffff161415611ac9573373ffffffffffffffffffffffffffffffffffffffff166108fc600a60008573ffffffffffffffffffffffffffffffffffffffff1673ffffffffffffffffffffffffffffffffffffffff168152602001908152602001600020549081150290604051600060405180830381858888f19350505050158015611ab5573d6000803e3d6000fd5b50611abf826129b5565b5060019050611e31565b6000600860008473ffffffffffffffffffffffffffffffffffffffff1673ffffffffffffffffffffffffffffffffffffffff16815260200190815260200160002060003373ffffffffffffffffffffffffffffffffffffffff1673ffffffffffffffffffffffffffffffffffffffff1681526020019081526020016000205414151515611b5557600080fd5b42600860008473ffffffffffffffffffffffffffffffffffffffff1673ffffffffffffffffffffffffffffffffffffffff16815260200190815260200160002060003373ffffffffffffffffffffffffffffffffffffffff1673ffffffffffffffffffffffffffffffffffffffff16815260200190815260200160002054101515611bdf57600080fd5b3373ffffffffffffffffffffffffffffffffffffffff166108fc600a60008573ffffffffffffffffffffffffffffffffffffffff1673ffffffffffffffffffffffffffffffffffffffff168152602001908152602001600020549081150290604051600060405180830381858888f19350505050158015611c64573d6000803e3d6000fd5b50611cf6600160008473ffffffffffffffffffffffffffffffffffffffff1673ffffffffffffffffffffffffffffffffffffffff16815260200190815260200160002054600160003373ffffffffffffffffffffffffffffffffffffffff1673ffffffffffffffffffffffffffffffffffffffff1681526020019081526020016000205461299990919063ffffffff16565b600160003373ffffffffffffffffffffffffffffffffffffffff1673ffffffffffffffffffffffffffffffffffffffff168152602001908152602001600020819055506000600160008473ffffffffffffffffffffffffffffffffffffffff1673ffffffffffffffffffffffffffffffffffffffff168152602001908152602001600020819055503373ffffffffffffffffffffffffffffffffffffffff168273ffffffffffffffffffffffffffffffffffffffff167fddf252ad1be2c89b69c2b068fc378daa952ba7f163c4a11628f55a4df523b3ef600160008673ffffffffffffffffffffffffffffffffffffffff1673ffffffffffffffffffffffffffffffffffffffff168152602001908152602001600020546040518082815260200191505060405180910390a3611e2b826129b5565b50600190505b919050565b6000600560009054906101000a900460ff16151515611e5457600080fd5b600073ffffffffffffffffffffffffffffffffffffffff168373ffffffffffffffffffffffffffffffffffffffff1614151515611e9057600080fd5b600160003373ffffffffffffffffffffffffffffffffffffffff1673ffffffffffffffffffffffffffffffffffffffff168152602001908152602001600020548211151515611ede57600080fd5b611f3082600160003373ffffffffffffffffffffffffffffffffffffffff1673ffffffffffffffffffffffffffffffffffffffff1681526020019081526020016000205461298090919063ffffffff16565b600160003373ffffffffffffffffffffffffffffffffffffffff1673ffffffffffffffffffffffffffffffffffffffff16815260200190815260200160002081905550611fc582600160008673ffffffffffffffffffffffffffffffffffffffff1673ffffffffffffffffffffffffffffffffffffffff1681526020019081526020016000205461299990919063ffffffff16565b600160008573ffffffffffffffffffffffffffffffffffffffff1673ffffffffffffffffffffffffffffffffffffffff16815260200190815260200160002081905550612011336119de565b508273ffffffffffffffffffffffffffffffffffffffff163373ffffffffffffffffffffffffffffffffffffffff167fddf252ad1be2c89b69c2b068fc378daa952ba7f163c4a11628f55a4df523b3ef846040518082815260200191505060405180910390a36001905092915050565b600560009054906101000a900460ff1681565b6000600860008473ffffffffffffffffffffffffffffffffffffffff1673ffffffffffffffffffffffffffffffffffffffff16815260200190815260200160002060008373ffffffffffffffffffffffffffffffffffffffff1673ffffffffffffffffffffffffffffffffffffffff16815260200190815260200160002054905092915050565b6000600560009054906101000a900460ff1615151561213957600080fd5b6121c882600760003373ffffffffffffffffffffffffffffffffffffffff1673ffffffffffffffffffffffffffffffffffffffff16815260200190815260200160002060008673ffffffffffffffffffffffffffffffffffffffff1673ffffffffffffffffffffffffffffffffffffffff1681526020019081526020016000205461299990919063ffffffff16565b600760003373ffffffffffffffffffffffffffffffffffffffff1673ffffffffffffffffffffffffffffffffffffffff16815260200190815260200160002060008573ffffffffffffffffffffffffffffffffffffffff1673ffffffffffffffffffffffffffffffffffffffff168152602001908152602001600020819055508273ffffffffffffffffffffffffffffffffffffffff163373ffffffffffffffffffffffffffffffffffffffff167f8c5be1e5ebec7d5bd14f71427d1e84f3dd0314c0f7b2291e5b200ac8c7c3b925600760003373ffffffffffffffffffffffffffffffffffffffff1673ffffffffffffffffffffffffffffffffffffffff16815260200190815260200160002060008773ffffffffffffffffffffffffffffffffffffffff1673ffffffffffffffffffffffffffffffffffffffff168152602001908152602001600020546040518082815260200191505060405180910390a36001905092915050565b6000600760008473ffffffffffffffffffffffffffffffffffffffff1673ffffffffffffffffffffffffffffffffffffffff16815260200190815260200160002060008373ffffffffffffffffffffffffffffffffffffffff1673ffffffffffffffffffffffffffffffffffffffff16815260200190815260200160002054905092915050565b60008060009054906101000a900473ffffffffffffffffffffffffffffffffffffffff1673ffffffffffffffffffffffffffffffffffffffff163373ffffffffffffffffffffffffffffffffffffffff1614151561241757600080fd5b6000600860008573ffffffffffffffffffffffffffffffffffffffff1673ffffffffffffffffffffffffffffffffffffffff16815260200190815260200160002060008473ffffffffffffffffffffffffffffffffffffffff1673ffffffffffffffffffffffffffffffffffffffff168152602001908152602001600020819055508173ffffffffffffffffffffffffffffffffffffffff168373ffffffffffffffffffffffffffffffffffffffff167f427bc004cdd1468def1921f7f7ea879d071c4a23cbfa04bf7020eaf594b1e36260405160405180910390a36001905092915050565b6000806000809054906101000a900473ffffffffffffffffffffffffffffffffffffffff1673ffffffffffffffffffffffffffffffffffffffff163373ffffffffffffffffffffffffffffffffffffffff1614151561255b57600080fd5b600560009054906101000a900460ff1615151561257757600080fd5b600360009054906101000a900460ff16151561259257600080fd5b825184511415156125a257600080fd5b600090505b8351811015612762576125dc83828151811015156125c157fe5b9060200190602002015160025461299990919063ffffffff16565b60028190555061266283828151811015156125f357fe5b9060200190602002015160016000878581518110151561260f57fe5b9060200190602002015173ffffffffffffffffffffffffffffffffffffffff1673ffffffffffffffffffffffffffffffffffffffff1681526020019081526020016000205461299990919063ffffffff16565b60016000868481518110151561267457fe5b9060200190602002015173ffffffffffffffffffffffffffffffffffffffff1673ffffffffffffffffffffffffffffffffffffffff168152602001908152602001600020819055507f0f6798a560793a54c3bcfe86a93cde1e73087d944c0ea20544137d412139688584828151811015156126eb57fe5b90602001906020020151848381518110151561270357fe5b90602001906020020151604051808373ffffffffffffffffffffffffffffffffffffffff1673ffffffffffffffffffffffffffffffffffffffff1681526020018281526020019250505060405180910390a180806001019150506125a7565b600191505092915050565b60008060009054906101000a900473ffffffffffffffffffffffffffffffffffffffff1673ffffffffffffffffffffffffffffffffffffffff163373ffffffffffffffffffffffffffffffffffffffff161415156127ca57600080fd5b6001600560006101000a81548160ff02191690831515021790555081600681600019169055507f6985a02210a168e66602d3235cb6db0e70f92b3ba4d376a33c0f3d9434bff62560405160405180910390a160019050919050565b60008060009054906101000a900473ffffffffffffffffffffffffffffffffffffffff1673ffffffffffffffffffffffffffffffffffffffff163373ffffffffffffffffffffffffffffffffffffffff1614151561288257600080fd5b6000600360006101000a81548160ff0219169083151502179055507f8e2ae564c2ac84296dfc6e6befea015184f9fa8418bad8f9c72d666026573cd960405160405180910390a190565b6000809054906101000a900473ffffffffffffffffffffffffffffffffffffffff1673ffffffffffffffffffffffffffffffffffffffff163373ffffffffffffffffffffffffffffffffffffffff1614151561292757600080fd5b61293081612c31565b50565b60096020528160005260406000208181548110151561294e57fe5b906000526020600020016000915091509054906101000a900473ffffffffffffffffffffffffffffffffffffffff1681565b600082821115151561298e57fe5b818303905092915050565b600081830190508281101515156129ac57fe5b80905092915050565b6000806000600960008573ffffffffffffffffffffffffffffffffffffffff1673ffffffffffffffffffffffffffffffffffffffff168152602001908152602001600020805490509150600090505b81811015612be1576000600860008673ffffffffffffffffffffffffffffffffffffffff1673ffffffffffffffffffffffffffffffffffffffff1681526020019081526020016000206000600960008873ffffffffffffffffffffffffffffffffffffffff1673ffffffffffffffffffffffffffffffffffffffff16815260200190815260200160002084815481101515612a9b57fe5b9060005260206000200160009054906101000a900473ffffffffffffffffffffffffffffffffffffffff1673ffffffffffffffffffffffffffffffffffffffff1673ffffffffffffffffffffffffffffffffffffffff16815260200190815260200160002081905550600960008573ffffffffffffffffffffffffffffffffffffffff1673ffffffffffffffffffffffffffffffffffffffff16815260200190815260200160002081815481101515612b5057fe5b9060005260206000200160009054906101000a900473ffffffffffffffffffffffffffffffffffffffff1673ffffffffffffffffffffffffffffffffffffffff168473ffffffffffffffffffffffffffffffffffffffff167f427bc004cdd1468def1921f7f7ea879d071c4a23cbfa04bf7020eaf594b1e36260405160405180910390a38080600101915050612a04565b6000600a60008673ffffffffffffffffffffffffffffffffffffffff1673ffffffffffffffffffffffffffffffffffffffff16815260200190815260200160002081905550600192505050919050565b600073ffffffffffffffffffffffffffffffffffffffff168173ffffffffffffffffffffffffffffffffffffffff1614151515612c6d57600080fd5b8073ffffffffffffffffffffffffffffffffffffffff166000809054906101000a900473ffffffffffffffffffffffffffffffffffffffff1673ffffffffffffffffffffffffffffffffffffffff167f8be0079c531659141344cd1fd0a4f28419497f9722a3daafe3b4186f6b6457e060405160405180910390a3806000806101000a81548173ffffffffffffffffffffffffffffffffffffffff021916908373ffffffffffffffffffffffffffffffffffffffff160217905550505600a165627a7a72305820309b4ea9293f2f7bcbda2656c67a9aa1a624550a3ccc1740208cb0ecadeec3320029",
  "source": "pragma solidity ^0.4.24;\n\nimport \"./ERC20Basic.sol\";\nimport \"./SafeMath.sol\";\nimport \"./ERC20.sol\";\nimport \"./Ownable.sol\";\n\n\n/**\n * @title Instruction Token\n * @author Benjamin Rickenbacher, benjamin@alethena.com\n * @dev This is the \"instruction token\" based on the ERC20 standard and the open zeppelin library.\n * @notice The main addition is a functionality that allows the user to claim that the key for a certain address is lost.\n * @notice In order to prevent malicious attempts, a collateral needs to be posted.\n * @notice The contract owner can delete claims in case of disputes.\n * \n * https://github.com/ethereum/EIPs/issues/20\n * Based on code by FirstBlood: https://github.com/Firstbloodio/token/blob/master/smart_contract/FirstBloodToken.sol\n */\ncontract InstructionToken is ERC20, Ownable {\n\n    using SafeMath for uint256;\n\n    mapping(address => uint256) balances;\n\n    uint256 totalSupply_;\n\n    /**\n  * @dev Total number of tokens in existence\n  */\n    function totalSupply() public view returns (uint256) {\n        return totalSupply_;\n    }\n\n    /**\n  * @dev Flag that indicates that minting is possible.\n  */\n    bool public mintable = true;\n    event mintingDone();\n\n        /**\n  * @dev Function to prevent any future minting.\n  */\n    function endMinting() public onlyOwner() returns (bool){\n        mintable = false;\n        emit mintingDone();\n    }\n\n\n  /** \n  * @param collateralRate \n  Sets the \"exchange rate\" for declaring addresses lost   */\n    uint256 collateralRate = 10**18 wei;\n\n    event CollateralRateChanged();\n\n    function setCollateralRate(uint256 _collateralRate) public onlyOwner() returns (bool){\n        collateralRate = _collateralRate;\n        emit CollateralRateChanged();\n    }\n\n  /** This contract is pausible.  */\n    bool public isPaused = false;\n\n  /** @dev In case the contract is paused, the pauseMessage can be used to give information. */\n    bytes32 public pauseMessage = \"Contract is active\";\n\n    event Pause();\n    event Unpause();\n\n  /** @dev Function to set pause.  */\n    function pause(bytes32 _inputMessage) public onlyOwner() returns (bool) {\n        isPaused = true;\n        pauseMessage = _inputMessage;\n        emit Pause();\n        return true;\n    }\n\n/** \n* @dev Function to unpause.  \n*/\n    function unpause() public onlyOwner() returns (bool) {\n        isPaused = false;\n        pauseMessage = \"Contract is active\";\n        emit Unpause();\n        return true;\n    }\n\n  /**\n  * @dev Transfer token for a specified address\n  * @param _to The address to transfer to.\n  * @param _value The amount to be transferred.\n  */\n    function transfer(address _to, uint256 _value) public returns (bool) {\n        require(!isPaused);\n        require(_to != address(0));\n        require(_value <= balances[msg.sender]);\n        balances[msg.sender] = balances[msg.sender].sub(_value);\n        balances[_to] = balances[_to].add(_value);\n        resolveClaim(msg.sender);\n        emit Transfer(msg.sender, _to, _value);\n        return true;\n    }\n\n  /**\n  * @dev Gets the balance of the specified address.\n  * @param _owner The address to query the the balance of.\n  * @return An uint256 representing the amount owned by the passed address.\n  */\n    function balanceOf(address _owner) public view returns (uint256) {\n        return balances[_owner];\n    }\n\n\n    mapping (address => mapping (address => uint256)) internal allowed;\n\n\n  /**\n   * @dev Transfer tokens from one address to another\n   * @param _from address The address which you want to send tokens from\n   * @param _to address The address which you want to transfer to\n   * @param _value uint256 the amount of tokens to be transferred\n   */\n    function transferFrom(\n        address _from,\n        address _to,\n        uint256 _value\n    )\n        public\n        returns (bool)\n    {\n        require(!isPaused);\n        require(_to != address(0));\n        require(_value <= balances[_from]);\n        require(_value <= allowed[_from][msg.sender]);\n\n        balances[_from] = balances[_from].sub(_value);\n        balances[_to] = balances[_to].add(_value);\n        allowed[_from][msg.sender] = allowed[_from][msg.sender].sub(_value);\n        resolveClaim(msg.sender);\n        emit Transfer(_from, _to, _value);\n        return true;\n    }\n\n  /**\n   * @dev Approve the passed address to spend the specified amount of tokens on behalf of msg.sender.\n   * Beware that changing an allowance with this method brings the risk that someone may use both the old\n   * and the new allowance by unfortunate transaction ordering. One possible solution to mitigate this\n   * race condition is to first reduce the spender's allowance to 0 and set the desired value afterwards:\n   * https://github.com/ethereum/EIPs/issues/20#issuecomment-263524729\n   * @param _spender The address which will spend the funds.\n   * @param _value The amount of tokens to be spent.\n   */\n    function approve(address _spender, uint256 _value) public returns (bool) {\n        require(!isPaused);\n        allowed[msg.sender][_spender] = _value;\n        emit Approval(msg.sender, _spender, _value);\n        return true;\n    }\n\n  /**\n   * @dev Function to check the amount of tokens that an owner allowed to a spender.\n   * @param _owner address The address which owns the funds.\n   * @param _spender address The address which will spend the funds.\n   * @return A uint256 specifying the amount of tokens still available for the spender.\n   */\n    function allowance(\n        address _owner,\n        address _spender\n    )\n    public\n    view\n    returns (uint256)\n  {\n        return allowed[_owner][_spender];\n    }\n\n  /**\n   * @dev Increase the amount of tokens that an owner allowed to a spender.\n   * approve should be called when allowed[_spender] == 0. To increment\n   * allowed value is better to use this function to avoid 2 calls (and wait until\n   * the first transaction is mined)\n   * From MonolithDAO Token.sol\n   * @param _spender The address which will spend the funds.\n   * @param _addedValue The amount of tokens to increase the allowance by.\n   */\n    function increaseApproval(\n        address _spender,\n        uint256 _addedValue\n    )\n        public\n        returns (bool)\n    {\n        require(!isPaused);\n        allowed[msg.sender][_spender] = (\n        allowed[msg.sender][_spender].add(_addedValue));\n        emit Approval(msg.sender, _spender, allowed[msg.sender][_spender]);\n        return true;\n    }\n\n  /**\n   * @dev Decrease the amount of tokens that an owner allowed to a spender.\n   * approve should be called when allowed[_spender] == 0. To decrement\n   * allowed value is better to use this function to avoid 2 calls (and wait until\n   * the first transaction is mined)\n   * From MonolithDAO Token.sol\n   * @param _spender The address which will spend the funds.\n   * @param _subtractedValue The amount of tokens to decrease the allowance by.\n   */\n    function decreaseApproval(\n        address _spender,\n        uint256 _subtractedValue\n    )\n        public\n        returns (bool)\n    {\n        require(!isPaused);\n        uint256 oldValue = allowed[msg.sender][_spender];\n        if (_subtractedValue > oldValue) {\n            allowed[msg.sender][_spender] = 0;\n        } else {\n            allowed[msg.sender][_spender] = oldValue.sub(_subtractedValue);\n        }\n        emit Approval(msg.sender, _spender, allowed[msg.sender][_spender]);\n        return true;\n    }\n  \n \n    event Mint(address _receiver,uint256 _amount);\n\n  /** \n   *  This is the minting function used to distribute the tokens initially\n   *  Once the minting is done, any future minting can be prevented by irrevocably setting \n   *  the mintable variable to \"false\".\n   */\n    function mint(address[] _receivers, uint256[] _amounts) \n    public \n    onlyOwner() \n    returns (bool){\n        require(!isPaused);\n        require(mintable);\n        require(_receivers.length == _amounts.length);\n\n        for (uint256 i = 0; i < _receivers.length; i++){\n            totalSupply_ = totalSupply_.add(_amounts[i]);\n            balances[_receivers[i]] = balances[_receivers[i]].add(_amounts[i]);\n            emit Mint(_receivers[i], _amounts[i]);\n        }\n        return true;\n    }\n  \n     \n  /** @dev First address is for the address that is being claimed.\n    * @dev Second address is the  user who makes the claim \n    * @dev The uint stores the locking period for a specific address pair \n    */\n\n    mapping(address => mapping(address => uint256)) public claims; \n    mapping(address => address[]) public indices;\n\n    // This stores the total collateral for a certain target address\n    mapping(address => uint256) collaterals;\n\n    event ClaimMade(address indexed _lostAddress, address indexed _claimer, uint256 _lockTime);\n    event ClaimDeleted(address indexed _lostAddress, address indexed _claimer);\n\n  /** \n    * @dev Getters for claims. Since keys cannot be deleted, they will be shown by showAllClaims() even if the claim was deleted.\n    * @dev To check specific claim use showClaim()\n    */\n\n    function showClaim(address _claimedAddress, address _claimerAddress) public view returns (uint256){\n        return claims[_claimedAddress][_claimerAddress];\n    }\n\n    function showAllClaims(address _claimedAddress) public view returns (address[]){\n        return indices[_claimedAddress];\n    }\n\n    function showCollaterals(address _claimedAddress) public view returns (uint256){\n        return collaterals[_claimedAddress];\n    }\n\n   \n  \n  /** @dev Anyone can declare that the private key to a certain address was lost by \n    * @dev calling declareLost and passing the address in question. To prevent random requests\n    * @dev a high collateral needs to be posted.\n    */\n    function declareLost (address _lostAddress) public payable returns (bool){\n        require(!isPaused);\n        require(msg.value == balances[_lostAddress]*collateralRate);\n        claims[_lostAddress][msg.sender] = block.timestamp + 1 minutes;\n        indices[_lostAddress].push(msg.sender);\n        collaterals[_lostAddress] = collaterals[_lostAddress].add(msg.value);\n        emit ClaimMade(_lostAddress, msg.sender, claims[_lostAddress][msg.sender]);\n    }\n    \n   /** \n    * @dev This function is used to resolve a claim.\n    * @dev A rightful owner can claim his address back.\n    * @dev Else, after waiting period address can be claimed.\n    * \n   */\n    function resolveClaim(address _addressToBeResolved) public returns (bool){\n        require(!isPaused);\n        if (msg.sender == _addressToBeResolved){\n            //pay out collateral\n            msg.sender.transfer(collaterals[_addressToBeResolved]);\n            //DELETE ALL CLAIMS FIR THIS ADDRESS\n            deleteAllClaims(_addressToBeResolved);\n            return true;\n        }\n\n        else{\n            // Check the sender actually has a claim\n            require(claims[_addressToBeResolved][msg.sender] != 0);\n\n            // Check that locking period fpr the sender is over\n            require(claims[_addressToBeResolved][msg.sender] < block.timestamp);\n\n           //pay claimer\n            msg.sender.transfer(collaterals[_addressToBeResolved]);\n            \n           //...and give him the tokens\n                        \n            balances[msg.sender] = balances[msg.sender].add(balances[_addressToBeResolved]);\n            balances[_addressToBeResolved] = 0;\n\n            emit Transfer(_addressToBeResolved, msg.sender, balances[_addressToBeResolved]);\n        \n          //DELETE ALL CLAIMS FOR THIS ADDRESS\n            deleteAllClaims(_addressToBeResolved);\n            return true;\n        }\n        return false;\n    }\n\n    /** \n     * @dev This function is to be executed by the owener only in case a legal dispute needs to be settled. \n     */\n\n    function deleteClaim(address _lostAddress, address _claimerAddress) public onlyOwner() returns (bool){\n        claims[_lostAddress][_claimerAddress] = 0;\n        emit ClaimDeleted(_lostAddress, _claimerAddress);\n        return true;\n    }\n\n    /** \n      * @dev This function is used to remove all claims on an address after claims have been resolved. \n      */\n    function deleteAllClaims(address _lostAddress) private returns (bool){\n\n        uint arrayLength = indices[_lostAddress].length;\n        for (uint i = 0; i < arrayLength; i++){\n            claims[_lostAddress][indices[_lostAddress][i]] = 0;\n            emit ClaimDeleted(_lostAddress, indices[_lostAddress][i]);\n        }\n        collaterals[_lostAddress] = 0;\n\n        return true;\n    }\n\n}",
  "sourcePath": "/Users/benjaminrickenbacher/Documents/GitHub/InstructionToken/InstructionToken/contracts/InstructionToken.sol",
  "compiler": {
    "name": "solc",
    "version": "0.4.24+commit.e67f0147.Emscripten.clang"
  },
  "schemaVersion": "2.0.0",
  "updatedAt": "2018-07-18T15:04:29.026Z"
}